:020000040000fa
:080000000001040000000000f3
:020000040000fa
:040008005a02000098
:020000040000fa
:04000c002a020000c4
:020000040000fa
:0400100030020000ba
:020000040000fa
:0400140036020000b0
:020000040000fa
:040018003c020000a6
:020000040000fa
:04001c005a02000084
:020000040000fa
:040020005a02000080
:020000040000fa
:040024005a0200007c
:020000040000fa
:040028005a02000078
:020000040000fa
:04002c005a02000074
:020000040000fa
:040030005a02000070
:020000040000fa
:04003400c8010000ff
:020000040000fa
:040038005a02000068
:020000040000fa
:04003c005a02000064
:020000040000fa
:04004000ea010000d1
:020000040000fa
:040044005a0200005c
:020000040000fa
:040048005a02000058
:020000040000fa
:04004c005a02000054
:020000040000fa
:040050005a02000050
:020000040000fa
:040054002202000084
:020000040000fa
:040058005a02000048
:020000040000fa
:04005c005a02000044
:020000040000fa
:040060005a02000040
:020000040000fa
:040064005a0200003c
:020000040000fa
:040068005a02000038
:020000040000fa
:04006c005a02000034
:020000040000fa
:040070005a02000030
:020000040000fa
:040074005a0200002c
:020000040000fa
:040078005a02000028
:020000040000fa
:04007c005a02000024
:020000040000fa
:040080005a02000020
:020000040000fa
:040084005a0200001c
:020000040000fa
:040088005a02000018
:020000040000fa
:04008c005a02000014
:020000040000fa
:040090005a02000010
:020000040000fa
:040094005a0200000c
:020000040000fa
:040098005a02000008
:020000040000fa
:04009c005a02000004
:020000040000fa
:0400a0005a02000000
:020000040000fa
:0400a4005a020000fc
:020000040000fa
:0400a8005a020000f8
:020000040000fa
:0400ac005a020000f4
:020000040000fa
:0400b0005a020000f0
:020000040000fa
:0400b4005a020000ec
:020000040000fa
:0400b8005a020000e8
:020000040000fa
:0400bc005a020000e4
:020000040000fa
:0400c0005a020000e0
:020000040000fa
:0400c4000e02000028
:020000040000fa
:0400c8005a020000d8
:020000040000fa
:0400cc005a020000d4
:020000040000fa
:0400d0005a020000d0
:020000040000fa
:0400d4005a020000cc
:020000040000fa
:0400d8005a020000c8
:020000040000fa
:040108005a02000097
:020000040000fa
:04010c0042020000ab
:020000040000fa
:0401100048020000a1
:020000040000fa
:040114004e02000097
:020000040000fa
:04011800540200008d
:020000040000fa
:04011c005a02000083
:020000040000fa
:040120005a0200007f
:020000040000fa
:040124005a0200007b
:020000040000fa
:040128005a02000077
:020000040000fa
:04012c005a02000073
:020000040000fa
:040130005a0200006f
:020000040000fa
:04013400c8010000fe
:020000040000fa
:040138005a02000067
:020000040000fa
:04013c005a02000063
:020000040000fa
:04014000ea010000d0
:020000040000fa
:040144005a0200005b
:020000040000fa
:040148005a02000057
:020000040000fa
:04014c005a02000053
:020000040000fa
:040150005a0200004f
:020000040000fa
:040154002202000083
:020000040000fa
:040158005a02000047
:020000040000fa
:04015c005a02000043
:020000040000fa
:040160005a0200003f
:020000040000fa
:040164005a0200003b
:020000040000fa
:040168005a02000037
:020000040000fa
:04016c005a02000033
:020000040000fa
:040170005a0200002f
:020000040000fa
:040174005a0200002b
:020000040000fa
:040178005a02000027
:020000040000fa
:04017c005a02000023
:020000040000fa
:040180005a0200001f
:020000040000fa
:040184005a0200001b
:020000040000fa
:040188005a02000017
:020000040000fa
:04018c005a02000013
:020000040000fa
:040190005a0200000f
:020000040000fa
:040194005a0200000b
:020000040000fa
:040198005a02000007
:020000040000fa
:04019c005a02000003
:020000040000fa
:0401a0005a020000ff
:020000040000fa
:0401a4005a020000fb
:020000040000fa
:0401a8005a020000f7
:020000040000fa
:0401ac005a020000f3
:020000040000fa
:0401b0005a020000ef
:020000040000fa
:0401b4005a020000eb
:020000040000fa
:0401b8005a020000e7
:020000040000fa
:0401bc005a020000e3
:020000040000fa
:0401c0005a020000df
:020000040000fa
:0401c4000e02000027
:020000040000fa
:0401c8005a020000d7
:020000040000fa
:0401cc005a020000d3
:020000040000fa
:0401d0005a020000cf
:020000040000fa
:0401d4005a020000cb
:020000040000fa
:0401d8005a020000c7
:020000040000fa
:10020000cf8020000eff20000e01880000000000bb
:10021000000020000000e000020032000001200089
:100220002002880014000700a40007000000e0007e
:1002300003003a00c0452000010020000200370002
:100240000000200001002000810f7000010032003a
:1002500014000700000020000000e000020032004f
:100260000000020000000000840402000000000002
:100270000040da000000fe004440a9000000200019
:100280000000e0000300320000002000a001880010
:100290004440a800000006008a1f78008b1f7800e9
:1002a0000000060091018800800478000000eb0047
:1002b0001a003700e284440032a0b4009905ba0065
:1002c000e284440032a0b4009906ba00e2844400fb
:1002d00032a0b4000006eb00476fde00fd07b2005d
:1002e000636ce10003003a00ebff07000000eb0045
:1002f0000a003700606ce10004003a00005deb008a
:100300008b05e900fdff3e00040037006168e10055
:10031000010032000086eb000b00070019c7ba008d
:100320001905ba000e04e00003003a000a00e000dc
:10033000e0ff3a0000000600fe07b2009e018800c0
:100340008a047800f5ff3700395dba008b05e900b3
:100350000c003200295dba008b05e900080032006c
:100360000c00e00003003a00e284440032a0b40034
:10037000f5ff370019ddba008b05e900faff3a00f6
:100380008904e800e184440032a0b40000000600c3
:1003900000a0fe000000fa00101780000040780066
:1003a000614060000004a200614060000080fb002a
:1003b00061006000111780000100a10001007000c1
:1003c000101788008460a9000080fa000080fe00f9
:1003d0000040060000a0fe000000fa001017800098
:1003e0000000d100614060000004a2006140600094
:1003f0000080fb00610060000000400011178000d9
:100400000110a100010070001017880084c0a9002d
:100410000080fa000080fe000040060000a0fe0000
:100420000000fa0010032000b00e88001003200026
:10043000c00e880088e0a9000080fa000080fe005d
:10044000004006000000fa008560a9000080fa0064
:10045000004006000000fa008020a900ffff3700de
:100460000000fa008060a900ffff37000000fa00da
:100470008040a900ffff37000000fa008080a9003b
:10048000ffff37000000fa008020a900ffff3700bf
:100490000000fa008060a900ffff37000000fa00aa
:1004a0008040a900ffff37000000fa008080a9000b
:1004b000ffff37000000fa00ffff370000000500d3
:020000040000fa
:1004c0000600fa00000f78001107980042479800d4
:1004d0004e409000614060006140600061406000fb
:1004e0000080fb0061006000510e80000100a1004f
:1004f00001007000500e8800500e80006100600006
:100500000000e00001003200ca41a9001e00e9001d
:100510000000400080007800601d20000080400046
:100520009e009000010878000080fa00000006009c
:100530000000fa0088e0a9008960a9003105800068
:10054000f0ff28000080600000e0a0003005880077
:1005500041058000f0ff28000080600000c0a0007e
:1005600040058800c7e1a90090e0a8009160a900bb
:100570000080fa00000006000200fa00000f780078
:100580009e007800210e8800c881a800c801a8003c
:10059000c8a1a800c821a800c8c1a900c841a900d5
:1005a000c901a900c921a900000e80003000b300d4
:1005b000000e8800c041a900010e8000f0f02f005d
:1005c00000806000000e8800510e800000f02000c6
:1005d00001007000500e8800c1e1a8000080fa0000
:1005e000000006000000fa00504080000041eb00cf
:1005f0008000780010002000b1ff0700504080000c
:100600000041eb008000780020002000acff0700d4
:1006100010032000d8ff0700c5ff07000080fa0084
:10062000000006000000fa008560a900c1048000f7
:10063000f0ff2800808060000000230001007000af
:10064000c00488008d60a8000080fa000000060049
:100650000000fa00a1e2a90011158000f0ff2100be
:1006600080806000000026000100700010158800e6
:10067000a4e2a9002115800000fc2f00008060008a
:1006800020158800a042a800a602a900a682a90001
:1006900001158000f0f12f00008060000015880037
:1006a000a062a90001158000f0cf2f00008060003b
:1006b00000158800a222a9008d60a900a1e2a8006f
:1006c0000080fa00000006000000fa00a022a80046
:1006d0000080fa00000006000200fa00004f7800d7
:1006e0001e80fb00000040008000780000282000f1
:1006f00000804000100078000080fa000000060032
:100700000000fa00c7ff0700d1ff07000080fa00d1
:10071000000006000000fa00de02a900de22a900a7
:10072000de42a900de62a900de82a900dea2a900e5
:100730000080fa00000006000000fa00c1168000e8
:10074000f003200001007000c01688000080fa004d
:10075000000006000200fa0080c0b30010479800b5
:1007600041158000c007200001007000401588007e
:100770000040eb00004f7800080037001e80fb00af
:10078000110020000008dd00800078003016800095
:1007900001007000301688001e4fe8001e409000d7
:1007a0009e40780080cf5000f4ff39000080fa00ae
:1007b000000006000000fa00d6ff0700deff070079
:1007c000e4ff07000080fa00000006000000fa00c5
:1007d0000421a9002108800000032000010070000e
:1007e00020088800e030200010088800a104800064
:1007f000f0ff28000080600000d0a000a004880066
:100800008460a9008c60a8000000000005e1a80039
:100810000080fa00000006000000fa001021a90084
:10082000810880000003200001007000800888001b
:1008300040e8210060088800b1048000f08f2f009c
:10084000008060000080a000b004880084c0a9007f
:100850008cc0a8000000000011e1a8000080fa0090
:10086000000006000000fa00d8ff0700eaff0700ba
:100870000080fa00000006000000fa000de2a90066
:1008800040142000a01088006110800090ff2f000d
:1008900000806000601088000c02a9000ca2a90072
:1008a0008d40a9008d20a9000de2a8000f42a800ec
:0808b0000080fa0000000600c0
:020000040000fa
:1008b800000800000a00000002000000000000001c
:1008c8000000000031003100000000000a080000ac
:1008d80002000000020000003100000000000000db
:020000040000fa
:1008e8000000fa00b1ff0700dcff07003bff07002c
:1008f80081ff0700deff07000080fa000000060005
:100908000400fa0000282000000f78000000eb0027
:0c09180010079800f2ff0700ffff3700f7
:020000040000fa
:0200000401f009
:04000000f0bf00004d
:020000040000fa
:0200000401f009
:04000400ff7f00007a
:020000040000fa
:0200000401f009
:04000800fffb0000fa
:020000040000fa
:0200000401f009
:04001400ffff0000ea
:020000040000fa
:0200000401f009
:04001800ffff0000e6
:00000001FF
