:020000040000fa
:080000000001040000000000f3
:020000040000fa
:040008008a02000068
:020000040000fa
:04000c005a02000094
:020000040000fa
:04001000600200008a
:020000040000fa
:040014006602000080
:020000040000fa
:040018006c02000076
:020000040000fa
:04001c008a02000054
:020000040000fa
:040020008a02000050
:020000040000fa
:040024008a0200004c
:020000040000fa
:040028008a02000048
:020000040000fa
:04002c008a02000044
:020000040000fa
:040030008a02000040
:020000040000fa
:04003400c8010000ff
:020000040000fa
:040038008a02000038
:020000040000fa
:04003c008a02000034
:020000040000fa
:0400400006020000b4
:020000040000fa
:040044008a0200002c
:020000040000fa
:040048008a02000028
:020000040000fa
:04004c008a02000024
:020000040000fa
:040050008a02000020
:020000040000fa
:040054008a0200001c
:020000040000fa
:040058008a02000018
:020000040000fa
:04005c008a02000014
:020000040000fa
:040060008a02000010
:020000040000fa
:040064008a0200000c
:020000040000fa
:040068008a02000008
:020000040000fa
:04006c008a02000004
:020000040000fa
:040070008a02000000
:020000040000fa
:040074008a020000fc
:020000040000fa
:040078008a020000f8
:020000040000fa
:04007c008a020000f4
:020000040000fa
:040080008a020000f0
:020000040000fa
:040084008a020000ec
:020000040000fa
:040088008a020000e8
:020000040000fa
:04008c008a020000e4
:020000040000fa
:040090008a020000e0
:020000040000fa
:040094008a020000dc
:020000040000fa
:040098008a020000d8
:020000040000fa
:04009c008a020000d4
:020000040000fa
:0400a0008a020000d0
:020000040000fa
:0400a4008a020000cc
:020000040000fa
:0400a8008a020000c8
:020000040000fa
:0400ac008a020000c4
:020000040000fa
:0400b0008a020000c0
:020000040000fa
:0400b4008a020000bc
:020000040000fa
:0400b8008a020000b8
:020000040000fa
:0400bc008a020000b4
:020000040000fa
:0400c0008a020000b0
:020000040000fa
:0400c40046020000f0
:020000040000fa
:0400c8008a020000a8
:020000040000fa
:0400cc008a020000a4
:020000040000fa
:0400d0008a020000a0
:020000040000fa
:0400d4008a0200009c
:020000040000fa
:0400d8008a02000098
:020000040000fa
:040108008a02000067
:020000040000fa
:04010c00720200007b
:020000040000fa
:040110007802000071
:020000040000fa
:040114007e02000067
:020000040000fa
:04011800840200005d
:020000040000fa
:04011c008a02000053
:020000040000fa
:040120008a0200004f
:020000040000fa
:040124008a0200004b
:020000040000fa
:040128008a02000047
:020000040000fa
:04012c008a02000043
:020000040000fa
:040130008a0200003f
:020000040000fa
:04013400c8010000fe
:020000040000fa
:040138008a02000037
:020000040000fa
:04013c008a02000033
:020000040000fa
:0401400006020000b3
:020000040000fa
:040144008a0200002b
:020000040000fa
:040148008a02000027
:020000040000fa
:04014c008a02000023
:020000040000fa
:040150008a0200001f
:020000040000fa
:040154008a0200001b
:020000040000fa
:040158008a02000017
:020000040000fa
:04015c008a02000013
:020000040000fa
:040160008a0200000f
:020000040000fa
:040164008a0200000b
:020000040000fa
:040168008a02000007
:020000040000fa
:04016c008a02000003
:020000040000fa
:040170008a020000ff
:020000040000fa
:040174008a020000fb
:020000040000fa
:040178008a020000f7
:020000040000fa
:04017c008a020000f3
:020000040000fa
:040180008a020000ef
:020000040000fa
:040184008a020000eb
:020000040000fa
:040188008a020000e7
:020000040000fa
:04018c008a020000e3
:020000040000fa
:040190008a020000df
:020000040000fa
:040194008a020000db
:020000040000fa
:040198008a020000d7
:020000040000fa
:04019c008a020000d3
:020000040000fa
:0401a0008a020000cf
:020000040000fa
:0401a4008a020000cb
:020000040000fa
:0401a8008a020000c7
:020000040000fa
:0401ac008a020000c3
:020000040000fa
:0401b0008a020000bf
:020000040000fa
:0401b4008a020000bb
:020000040000fa
:0401b8008a020000b7
:020000040000fa
:0401bc008a020000b3
:020000040000fa
:0401c0008a020000af
:020000040000fa
:0401c40046020000ef
:020000040000fa
:0401c8008a020000a7
:020000040000fa
:0401cc008a020000a3
:020000040000fa
:0401d0008a0200009f
:020000040000fa
:0401d4008a0200009b
:020000040000fa
:0401d8008a02000097
:020000040000fa
:100200002f8020000eff20000e018800000000005b
:10021000000020000000e000020032000001200089
:100220002002880014000700bc0007000000e00066
:1002300003003a00e03f20000100200002003700e8
:100240000000200001002000810f7000010032003a
:1002500014000700000020000000e000020032004f
:10026000000002000000000008040200000000007e
:100270000040da000000fe004440a9000000200019
:100280000000e0000300320000002000a001880010
:100290004440a800000006008a1f78008b1f7800e9
:1002a0000000060091018800800478000000eb0047
:1002b0001a003700e284440032a0b4009905ba0065
:1002c000e284440032a0b4009906ba00e2844400fb
:1002d00032a0b4000006eb00476fde00fd07b2005d
:1002e000636ce10003003a00ebff07000000eb0045
:1002f0000a003700606ce10004003a00005deb008a
:100300008b05e900fdff3e00040037006168e10055
:10031000010032000086eb000b00070019c7ba008d
:100320001905ba000e04e00003003a000a00e000dc
:10033000e0ff3a0000000600fe07b2009e018800c0
:100340008a047800f5ff3700395dba008b05e900b3
:100350000c003200295dba008b05e900080032006c
:100360000c00e00003003a00e284440032a0b40034
:10037000f5ff370019ddba008b05e900faff3a00f6
:100380008904e800e184440032a0b40000000600c3
:1003900000a0fe000000fa00101780000040780066
:1003a000614060000004a200614060000080fb002a
:1003b00061006000111780000100a10001007000c1
:1003c00010178800101780006100600000f0a7007f
:1003d0000000ea000000e9004f00de000040780065
:1003e0000080fb00610060004200dd00111780000a
:1003f0000120a10001007000101788008460a9008e
:100400000080fa000080fe000040060000a0fe0010
:100410000000fa00101780000000d1006140600069
:100420000004a200614060000080fb0061006000e9
:1004300000004000111780000110a10001007000b1
:1004400010178800101780006200600000f0a700fd
:100450000000ea000000e9004f00de0000407800e4
:100460000080fb00610060004300dd001117800088
:100470000130a100010070001017880084c0a9009d
:100480000080fa000080fe000040060000a0fe0090
:100490000000fa0000408000b00e8800004080009c
:1004a000c00e880088e0a9000080fa000080fe00ed
:1004b000004006000000fa008020a900ffff37007e
:1004c0000000fa008060a900ffff37000000fa007a
:1004d0008040a900ffff37000000fa008080a900db
:1004e000ffff37000000fa008020a900ffff37005f
:1004f0000000fa008060a900ffff37000000fa004a
:100500008040a900ffff37000000fa008080a900aa
:10051000ffff37000000fa00ffff37000000050072
:020000040000fa
:100520000600fa00000f7800110798004247980073
:100530004e4090006140600061406000614060009a
:100540000080fb0061006000510e80000100a100ee
:1005500001007000500e8800500e800061006000a5
:100560000000e00001003200ca41a9001e00e900bd
:100570000000400080007800601d200000804000e6
:100580009e009000010878000080fa00000006003c
:100590000000fa0088e0a9008960a9003105800008
:1005a000f0ff28000080600000c0a0003005880037
:1005b00041058000f0ff28000080600000c0a0001e
:1005c0004005880090e0a8009160a9000080fa0032
:1005d000000006000200fa00000f78009e0078007c
:1005e000210e8800c881a800c801a800c8a1a800e1
:1005f000c821a800c8c1a900c841a900c901a90013
:10060000c921a900000e80003000b300000e880050
:10061000c041a900010e8000f0f02f0000806000b2
:10062000000e8800c1e1a8000080fa00000006006a
:100630000000fa00d6ff0700004080000041eb00f8
:100640008000780010002000b5ff07000040800007
:100650000041eb008000780020002000b0ff070080
:1006600010032000dbff07000080fa0000000600f6
:100670000000fa000421a9002108800000032000e6
:100680000100700020088800e03020001008880079
:10069000a1048000f0ff28000080600000c0a000de
:1006a000a00488008460a9008c60a80000000000fd
:1006b00005e1a8000080fa00000006000000fa0032
:1006c0001021a900810880000003200001007000b3
:1006d0008008880040e8210060088800b10480009c
:1006e000f08f2f008080600000302000010070003b
:1006f000b004880084c0a9008cc0a80000000000dd
:1007000011e1a8000080fa00000006000000fa00d5
:10071000d7ff0700e9ff07000080fa00000006008d
:100720000000fa00de02a900de22a900de42a900d4
:10073000de62a900de82a900dea2a9000080fa0024
:10074000000006000000fa00d802a900d822a90083
:10075000d842a900d862a900d882a900d8a2a900cd
:100760000080fa00000006000000fa00c007200028
:10077000401588000080eb00301688000080fa00e9
:10078000000006000000fa00e5ff0700edff07008b
:10079000f5ff07000080fa00000006000000fa00e4
:1007a000a022a9000080fa00000006000200fa0062
:1007b000004f78001e80fb000000400080007800a1
:1007c0000028200000804000100078000080fa001f
:1007d000000006000000fa000080fa000000060099
:1007e0000000fa00e7ff0700c8ff070090ff0700be
:0c07f000f8ff07000080fa00000006007f
:020000040000fa
:1007fc0000080000020000000200000031000000b0
:04080c0000000000e8
:020000040000fa
:100810000000fa0002000700f1ff0700ffff3700a9
:0c0820000000fa000080fa000000060052
:020000040000fa
:0200000401f009
:04000000f4bf000049
:020000040000fa
:0200000401f009
:04000400ff7f00007a
:020000040000fa
:0200000401f009
:04000800fffb0000fa
:020000040000fa
:0200000401f009
:04001400ffff0000ea
:020000040000fa
:0200000401f009
:04001800ffff0000e6
:00000001FF
