:020000040000fa
:080000000001040000000000f3
:020000040000fa
:040008006202000090
:020000040000fa
:04000c0032020000bc
:020000040000fa
:0400100038020000b2
:020000040000fa
:040014003e020000a8
:020000040000fa
:04001800440200009e
:020000040000fa
:04001c00620200007c
:020000040000fa
:040020006202000078
:020000040000fa
:040024006202000074
:020000040000fa
:040028006202000070
:020000040000fa
:04002c00620200006c
:020000040000fa
:040030006202000068
:020000040000fa
:04003400c8010000ff
:020000040000fa
:040038006202000060
:020000040000fa
:04003c00620200005c
:020000040000fa
:04004000ea010000d1
:020000040000fa
:040044000e020000a8
:020000040000fa
:040048006202000050
:020000040000fa
:04004c00620200004c
:020000040000fa
:040050006202000048
:020000040000fa
:040054006202000044
:020000040000fa
:040058006202000040
:020000040000fa
:04005c00620200003c
:020000040000fa
:040060006202000038
:020000040000fa
:040064006202000034
:020000040000fa
:040068006202000030
:020000040000fa
:04006c00620200002c
:020000040000fa
:040070006202000028
:020000040000fa
:040074006202000024
:020000040000fa
:040078006202000020
:020000040000fa
:04007c00620200001c
:020000040000fa
:040080006202000018
:020000040000fa
:040084006202000014
:020000040000fa
:040088006202000010
:020000040000fa
:04008c00620200000c
:020000040000fa
:040090006202000008
:020000040000fa
:040094006202000004
:020000040000fa
:040098006202000000
:020000040000fa
:04009c0062020000fc
:020000040000fa
:0400a00062020000f8
:020000040000fa
:0400a40062020000f4
:020000040000fa
:0400a80062020000f0
:020000040000fa
:0400ac0062020000ec
:020000040000fa
:0400b00062020000e8
:020000040000fa
:0400b40062020000e4
:020000040000fa
:0400b80062020000e0
:020000040000fa
:0400bc0062020000dc
:020000040000fa
:0400c00062020000d8
:020000040000fa
:0400c40062020000d4
:020000040000fa
:0400c80062020000d0
:020000040000fa
:0400cc0062020000cc
:020000040000fa
:0400d00062020000c8
:020000040000fa
:0400d40062020000c4
:020000040000fa
:0400d80062020000c0
:020000040000fa
:04010800620200008f
:020000040000fa
:04010c004a020000a3
:020000040000fa
:040110005002000099
:020000040000fa
:04011400560200008f
:020000040000fa
:040118005c02000085
:020000040000fa
:04011c00620200007b
:020000040000fa
:040120006202000077
:020000040000fa
:040124006202000073
:020000040000fa
:04012800620200006f
:020000040000fa
:04012c00620200006b
:020000040000fa
:040130006202000067
:020000040000fa
:04013400c8010000fe
:020000040000fa
:04013800620200005f
:020000040000fa
:04013c00620200005b
:020000040000fa
:04014000ea010000d0
:020000040000fa
:040144000e020000a7
:020000040000fa
:04014800620200004f
:020000040000fa
:04014c00620200004b
:020000040000fa
:040150006202000047
:020000040000fa
:040154006202000043
:020000040000fa
:04015800620200003f
:020000040000fa
:04015c00620200003b
:020000040000fa
:040160006202000037
:020000040000fa
:040164006202000033
:020000040000fa
:04016800620200002f
:020000040000fa
:04016c00620200002b
:020000040000fa
:040170006202000027
:020000040000fa
:040174006202000023
:020000040000fa
:04017800620200001f
:020000040000fa
:04017c00620200001b
:020000040000fa
:040180006202000017
:020000040000fa
:040184006202000013
:020000040000fa
:04018800620200000f
:020000040000fa
:04018c00620200000b
:020000040000fa
:040190006202000007
:020000040000fa
:040194006202000003
:020000040000fa
:0401980062020000ff
:020000040000fa
:04019c0062020000fb
:020000040000fa
:0401a00062020000f7
:020000040000fa
:0401a40062020000f3
:020000040000fa
:0401a80062020000ef
:020000040000fa
:0401ac0062020000eb
:020000040000fa
:0401b00062020000e7
:020000040000fa
:0401b40062020000e3
:020000040000fa
:0401b80062020000df
:020000040000fa
:0401bc0062020000db
:020000040000fa
:0401c00062020000d7
:020000040000fa
:0401c40062020000d3
:020000040000fa
:0401c80062020000cf
:020000040000fa
:0401cc0062020000cb
:020000040000fa
:0401d00062020000c7
:020000040000fa
:0401d40062020000c3
:020000040000fa
:0401d80062020000bf
:020000040000fa
:100200000f8020000eff20000e018800000000007b
:10021000000020000000e000020032000001200089
:100220002002880014000700a80007000000e0007a
:1002300003003a0000002000010020000200370007
:100240000000200001002000810f7000010032003a
:1002500014000700000020000000e000020032004f
:100260000000020000000000d802020000000000b0
:100270000040da000000fe004440a9000000200019
:100280000000e0000300320000002000a001880010
:100290004440a800000006008a1f78008b1f7800e9
:1002a0000000060091018800800478000000eb0047
:1002b0001a003700e284440032a0b4009905ba0065
:1002c000e284440032a0b4009906ba00e2844400fb
:1002d00032a0b4000006eb00476fde00fd07b2005d
:1002e000636ce10003003a00ebff07000000eb0045
:1002f0000a003700606ce10004003a00005deb008a
:100300008b05e900fdff3e00040037006168e10055
:10031000010032000086eb000b00070019c7ba008d
:100320001905ba000e04e00003003a000a00e000dc
:10033000e0ff3a0000000600fe07b2009e018800c0
:100340008a047800f5ff3700395dba008b05e900b3
:100350000c003200295dba008b05e900080032006c
:100360000c00e00003003a00e284440032a0b40034
:10037000f5ff370019ddba008b05e900faff3a00f6
:100380008904e800e184440032a0b40000000600c3
:10039000809fbe000000fa00101780000040780027
:1003a000614060000004a200614060000080fb002a
:1003b00061006000111780000100a10001007000c1
:1003c000101788008460a9000080fa004f00be006a
:1003d00000400600809fbe000000fa001017800059
:1003e0000000d100614060000004a2006140600094
:1003f0000080fb00610060000000400011178000d9
:100400000110a100010070001017880084c0a9002d
:100410000080fa004f00be0000400600809fbe0032
:100420000000fa00101780004200de00614060000a
:100430000004a200614060000080fb0061006000d9
:100440004200dd00111780000120a10001007000b2
:100450001017880084e0a9000080fa004f00be0059
:10046000004006000000fa008020a900ffff3700ce
:100470000000fa008060a900ffff37000000fa00ca
:100480008040a900ffff37000000fa008080a9002b
:10049000ffff37000000fa008020a900ffff3700af
:1004a0000000fa008060a900ffff37000000fa009a
:1004b0008040a900ffff37000000fa008080a900fb
:1004c000ffff37000000fa00ffff370000000500c3
:020000040000fa
:1004d0000000fa0000ff2f00f01688000080eb00fb
:1004e000c01688000421a900210880000003200014
:1004f0000100700020088800e0302000100888000b
:10050000a1048000f0ff28000080600000c0a0006f
:10051000a00488008460a9008c60a800000000008e
:1005200005e1a8001021a900810880000003200037
:10053000010070008008880020f420006008880016
:10054000b1048000f08f2f00008060000090a000b8
:10055000b004880084c0a9008cc0a800000000007e
:1005600011e1a8001221a9009108800000032000d9
:10057000010070009008880040e8210070088800a1
:10058000b1048000f0ff280080806000000023009c
:1005900001007000b004880084e0a9008ce0a8008d
:1005a0000000000013e1a8000080fa00000006002f
:1005b0000000fa0002000700c5ff0700ffff370038
:0c05c0000000fa000080fa0000000600b5
:020000040000fa
:0200000401f009
:04000000f4bf000049
:020000040000fa
:0200000401f009
:04000400ff7f00007a
:020000040000fa
:0200000401f009
:04000800fffb0000fa
:020000040000fa
:0200000401f009
:04001400ffff0000ea
:020000040000fa
:0200000401f009
:04001800ffff0000e6
:00000001FF
