:020000040000fa
:080000000001040000000000f3
:020000040000fa
:040008009202000060
:020000040000fa
:04000c00620200008c
:020000040000fa
:040010006802000082
:020000040000fa
:040014006e02000078
:020000040000fa
:04001800740200006e
:020000040000fa
:04001c00920200004c
:020000040000fa
:040020009202000048
:020000040000fa
:040024009202000044
:020000040000fa
:040028009202000040
:020000040000fa
:04002c00920200003c
:020000040000fa
:040030009202000038
:020000040000fa
:04003400c8010000ff
:020000040000fa
:040038009202000030
:020000040000fa
:04003c00920200002c
:020000040000fa
:0400400006020000b4
:020000040000fa
:040044009202000024
:020000040000fa
:040048009202000020
:020000040000fa
:04004c00920200001c
:020000040000fa
:040050009202000018
:020000040000fa
:040054005a0200004c
:020000040000fa
:040058009202000010
:020000040000fa
:04005c00920200000c
:020000040000fa
:040060009202000008
:020000040000fa
:040064009202000004
:020000040000fa
:040068009202000000
:020000040000fa
:04006c0092020000fc
:020000040000fa
:0400700092020000f8
:020000040000fa
:0400740092020000f4
:020000040000fa
:0400780092020000f0
:020000040000fa
:04007c0092020000ec
:020000040000fa
:0400800092020000e8
:020000040000fa
:0400840092020000e4
:020000040000fa
:0400880092020000e0
:020000040000fa
:04008c0092020000dc
:020000040000fa
:0400900092020000d8
:020000040000fa
:0400940092020000d4
:020000040000fa
:0400980092020000d0
:020000040000fa
:04009c0092020000cc
:020000040000fa
:0400a00092020000c8
:020000040000fa
:0400a40092020000c4
:020000040000fa
:0400a80092020000c0
:020000040000fa
:0400ac0092020000bc
:020000040000fa
:0400b00092020000b8
:020000040000fa
:0400b40092020000b4
:020000040000fa
:0400b80092020000b0
:020000040000fa
:0400bc0092020000ac
:020000040000fa
:0400c00092020000a8
:020000040000fa
:0400c40046020000f0
:020000040000fa
:0400c80092020000a0
:020000040000fa
:0400cc00920200009c
:020000040000fa
:0400d0009202000098
:020000040000fa
:0400d4009202000094
:020000040000fa
:0400d8009202000090
:020000040000fa
:04010800920200005f
:020000040000fa
:04010c007a02000073
:020000040000fa
:040110008002000069
:020000040000fa
:04011400860200005f
:020000040000fa
:040118008c02000055
:020000040000fa
:04011c00920200004b
:020000040000fa
:040120009202000047
:020000040000fa
:040124009202000043
:020000040000fa
:04012800920200003f
:020000040000fa
:04012c00920200003b
:020000040000fa
:040130009202000037
:020000040000fa
:04013400c8010000fe
:020000040000fa
:04013800920200002f
:020000040000fa
:04013c00920200002b
:020000040000fa
:0401400006020000b3
:020000040000fa
:040144009202000023
:020000040000fa
:04014800920200001f
:020000040000fa
:04014c00920200001b
:020000040000fa
:040150009202000017
:020000040000fa
:040154005a0200004b
:020000040000fa
:04015800920200000f
:020000040000fa
:04015c00920200000b
:020000040000fa
:040160009202000007
:020000040000fa
:040164009202000003
:020000040000fa
:0401680092020000ff
:020000040000fa
:04016c0092020000fb
:020000040000fa
:0401700092020000f7
:020000040000fa
:0401740092020000f3
:020000040000fa
:0401780092020000ef
:020000040000fa
:04017c0092020000eb
:020000040000fa
:0401800092020000e7
:020000040000fa
:0401840092020000e3
:020000040000fa
:0401880092020000df
:020000040000fa
:04018c0092020000db
:020000040000fa
:0401900092020000d7
:020000040000fa
:0401940092020000d3
:020000040000fa
:0401980092020000cf
:020000040000fa
:04019c0092020000cb
:020000040000fa
:0401a00092020000c7
:020000040000fa
:0401a40092020000c3
:020000040000fa
:0401a80092020000bf
:020000040000fa
:0401ac0092020000bb
:020000040000fa
:0401b00092020000b7
:020000040000fa
:0401b40092020000b3
:020000040000fa
:0401b80092020000af
:020000040000fa
:0401bc0092020000ab
:020000040000fa
:0401c00092020000a7
:020000040000fa
:0401c40046020000ef
:020000040000fa
:0401c800920200009f
:020000040000fa
:0401cc00920200009b
:020000040000fa
:0401d0009202000097
:020000040000fa
:0401d4009202000093
:020000040000fa
:0401d800920200008f
:020000040000fa
:10020000cf8020000eff20000e01880000000000bb
:10021000000020000000e000020032000001200089
:100220002002880014000700c00007000000e00062
:1002300003003a00c0472000010020000200370000
:100240000000200001002000810f7000010032003a
:1002500014000700000020000000e000020032004f
:1002600000000200000000009404020000000000f2
:100270000040da000000fe004440a9000000200019
:100280000000e0000300320000002000a001880010
:100290004440a800000006008a1f78008b1f7800e9
:1002a0000000060091018800800478000000eb0047
:1002b0001a003700e284440032a0b4009905ba0065
:1002c000e284440032a0b4009906ba00e2844400fb
:1002d00032a0b4000006eb00476fde00fd07b2005d
:1002e000636ce10003003a00ebff07000000eb0045
:1002f0000a003700606ce10004003a00005deb008a
:100300008b05e900fdff3e00040037006168e10055
:10031000010032000086eb000b00070019c7ba008d
:100320001905ba000e04e00003003a000a00e000dc
:10033000e0ff3a0000000600fe07b2009e018800c0
:100340008a047800f5ff3700395dba008b05e900b3
:100350000c003200295dba008b05e900080032006c
:100360000c00e00003003a00e284440032a0b40034
:10037000f5ff370019ddba008b05e900faff3a00f6
:100380008904e800e184440032a0b40000000600c3
:1003900000a0fe000000fa00101780000040780066
:1003a000614060000004a200614060000080fb002a
:1003b00061006000111780000100a10001007000c1
:1003c00010178800101780006100600000f0a7007f
:1003d0000000ea000000e9004f00de000040780065
:1003e0000080fb00610060004200dd00111780000a
:1003f0000120a10001007000101788008460a9008e
:100400000080fa000080fe000040060000a0fe0010
:100410000000fa00101780000000d1006140600069
:100420000004a200614060000080fb0061006000e9
:1004300000004000111780000110a10001007000b1
:1004400010178800101780006200600000f0a700fd
:100450000000ea000000e9004f00de0000407800e4
:100460000080fb00610060004300dd001117800088
:100470000130a100010070001017880084c0a9009d
:100480000080fa000080fe000040060000a0fe0090
:100490000000fa0010032000b00e880010032000b6
:1004a000c00e880088e0a9000080fa000080fe00ed
:1004b000004006000000fa008560a9000080fa00f4
:1004c000004006000000fa008020a900ffff37006e
:1004d0000000fa008060a900ffff37000000fa006a
:1004e0008040a900ffff37000000fa008080a900cb
:1004f000ffff37000000fa008020a900ffff37004f
:100500000000fa008060a900ffff37000000fa0039
:100510008040a900ffff37000000fa008080a9009a
:10052000ffff37000000fa00ffff37000000050062
:020000040000fa
:100530000600fa00000f7800110798004247980063
:100540004e4090006140600061406000614060008a
:100550000080fb0061006000510e80000100a100de
:1005600001007000500e8800500e80006100600095
:100570000000e00001003200ca41a9001e00e900ad
:100580000000400080007800601d200000804000d6
:100590009e009000010878000080fa00000006002c
:1005a0000000fa0088e0a9008960a90031058000f8
:1005b000f0ff28000080600000e0a0003005880007
:1005c00041058000f0ff28000080600000c0a0000e
:1005d00040058800c7e1a90090e0a8009160a9004b
:1005e0000080fa00000006000200fa00000f780008
:1005f0009e007800210e8800c881a800c801a800cc
:10060000c8a1a800c821a800c8c1a900c841a90064
:10061000c901a900c921a900000e80003000b30063
:10062000000e8800c041a900010e8000f0f02f00ec
:1006300000806000000e8800510e800000f0200055
:1006400001007000500e8800c1e1a8000080fa008f
:10065000000006000000fa00504080000041eb005e
:100660008000780010002000b1ff0700504080009b
:100670000041eb008000780020002000acff070064
:1006800010032000d8ff0700c5ff07000080fa0014
:10069000000006000000fa008560a900c104800087
:1006a000f0ff28008080600000002300010070003f
:1006b000c00488008d60a8000080fa0000000600d9
:1006c0000000fa00a1e2a90011158000f0ff21004e
:1006d0000080600010158800a4e2a90021158000a8
:1006e00000fc2f000080600020158800a202a900f5
:1006f000a682a900a342a800aa82a800aaa2a800d4
:10070000a6a2a90031158000f0f32f000080600040
:100710003015880011158000f0cf2f000080600098
:100720000090a00010158800a062a80001158000ac
:10073000f0f12f00808060000006200001007000b2
:1007400000158800a042a80021158000f00f2e009f
:100750008080600000c0200001007000201588002b
:1007600001158000f0cf2f00008060000015880088
:100770001115800030fc2f00008060000030a000c8
:1007800010158800a222a900a1e2a8000080fa00aa
:10079000000006000200fa00004f78001e80fb00f7
:1007a0000000400080007800002820000080400009
:1007b000100078000080fa00000006000000fa0037
:1007c000b4ff0700beff07000080fa00000006002b
:1007d0000000fa000421a900210880000003200085
:1007e0000100700020088800e03020001008880018
:1007f000a1048000f0ff28000080600000c0a0007d
:10080000a00488008460a9008c60a800000000009b
:1008100005e1a8000080fa00000006000000fa00d0
:100820001021a90081088000000320000100700051
:100830008008880040e8210060088800b10480003a
:10084000f08f2f00008060000090a000b0048800ae
:1008500084c0a9008cc0a8000000000011e1a8001d
:100860000080fa00000006000000fa00d8ff070030
:10087000eaff07000080fa00000006000000fa000e
:10088000de02a900de22a900de42a900de62a90084
:10089000de82a900dea2a9000080fa0000000600a6
:1008a0000000fa00c1168000f00320000100700073
:1008b000c01688000080fa00000006000200fa005e
:1008c00080c0b300004f7800f0072000401588007a
:1008d0000080eb00301688000080fa00000006005f
:1008e0000000fa00e5ff0700edff0700f3ff070037
:0808f0000080fa000000060080
:020000040000fa
:1008f800000800000a0000000200000000000000dc
:100908000000000031003100000000000a0800006b
:10091800020000000200000031000000000000009a
:020000040000fa
:100928000400fa0000282000000f78000000eb0007
:10093800100798000900070001000700ffff3700b3
:100948000000fa00e4ff0700c5ff07003fff0700ab
:1009580098ff07000080fa00000006000000fa0077
:080968000080fa000000060007
:020000040000fa
:0200000401f009
:04000000f4bf000049
:020000040000fa
:0200000401f009
:04000400ff7f00007a
:020000040000fa
:0200000401f009
:04000800fffb0000fa
:020000040000fa
:0200000401f009
:04001400ffff0000ea
:020000040000fa
:0200000401f009
:04001800ffff0000e6
:00000001FF
