:020000040000fa
:080000000001040000000000f3
:020000040000fa
:0400080024020000ce
:020000040000fa
:04000c00f4010000fb
:020000040000fa
:04001000fa010000f1
:020000040000fa
:0400140000020000e6
:020000040000fa
:0400180006020000dc
:020000040000fa
:04001c0024020000ba
:020000040000fa
:0400200024020000b6
:020000040000fa
:0400240024020000b2
:020000040000fa
:0400280024020000ae
:020000040000fa
:04002c0024020000aa
:020000040000fa
:0400300024020000a6
:020000040000fa
:0400340024020000a2
:020000040000fa
:04003800240200009e
:020000040000fa
:04003c00240200009a
:020000040000fa
:040040002402000096
:020000040000fa
:040044002402000092
:020000040000fa
:04004800240200008e
:020000040000fa
:04004c00240200008a
:020000040000fa
:040050002402000086
:020000040000fa
:040054002402000082
:020000040000fa
:04005800240200007e
:020000040000fa
:04005c00240200007a
:020000040000fa
:040060002402000076
:020000040000fa
:040064002402000072
:020000040000fa
:04006800240200006e
:020000040000fa
:04006c00240200006a
:020000040000fa
:040070002402000066
:020000040000fa
:040074002402000062
:020000040000fa
:04007800240200005e
:020000040000fa
:04007c00240200005a
:020000040000fa
:040080002402000056
:020000040000fa
:040084002402000052
:020000040000fa
:04008800240200004e
:020000040000fa
:04008c00240200004a
:020000040000fa
:040090002402000046
:020000040000fa
:040094002402000042
:020000040000fa
:04009800240200003e
:020000040000fa
:04009c00240200003a
:020000040000fa
:0400a0002402000036
:020000040000fa
:0400a4002402000032
:020000040000fa
:0400a800240200002e
:020000040000fa
:0400ac00240200002a
:020000040000fa
:0400b0002402000026
:020000040000fa
:0400b4002402000022
:020000040000fa
:0400b800240200001e
:020000040000fa
:0400bc00240200001a
:020000040000fa
:0400c0002402000016
:020000040000fa
:0400c4002402000012
:020000040000fa
:0400c800240200000e
:020000040000fa
:0400cc00240200000a
:020000040000fa
:0400d0002402000006
:020000040000fa
:0400d4002402000002
:020000040000fa
:0400d80024020000fe
:020000040000fa
:0401080024020000cd
:020000040000fa
:04010c000c020000e1
:020000040000fa
:0401100012020000d7
:020000040000fa
:0401140018020000cd
:020000040000fa
:040118001e020000c3
:020000040000fa
:04011c0024020000b9
:020000040000fa
:0401200024020000b5
:020000040000fa
:0401240024020000b1
:020000040000fa
:0401280024020000ad
:020000040000fa
:04012c0024020000a9
:020000040000fa
:0401300024020000a5
:020000040000fa
:0401340024020000a1
:020000040000fa
:04013800240200009d
:020000040000fa
:04013c002402000099
:020000040000fa
:040140002402000095
:020000040000fa
:040144002402000091
:020000040000fa
:04014800240200008d
:020000040000fa
:04014c002402000089
:020000040000fa
:040150002402000085
:020000040000fa
:040154002402000081
:020000040000fa
:04015800240200007d
:020000040000fa
:04015c002402000079
:020000040000fa
:040160002402000075
:020000040000fa
:040164002402000071
:020000040000fa
:04016800240200006d
:020000040000fa
:04016c002402000069
:020000040000fa
:040170002402000065
:020000040000fa
:040174002402000061
:020000040000fa
:04017800240200005d
:020000040000fa
:04017c002402000059
:020000040000fa
:040180002402000055
:020000040000fa
:040184002402000051
:020000040000fa
:04018800240200004d
:020000040000fa
:04018c002402000049
:020000040000fa
:040190002402000045
:020000040000fa
:040194002402000041
:020000040000fa
:04019800240200003d
:020000040000fa
:04019c002402000039
:020000040000fa
:0401a0002402000035
:020000040000fa
:0401a4002402000031
:020000040000fa
:0401a800240200002d
:020000040000fa
:0401ac002402000029
:020000040000fa
:0401b0002402000025
:020000040000fa
:0401b4002402000021
:020000040000fa
:0401b800240200001d
:020000040000fa
:0401bc002402000019
:020000040000fa
:0401c0002402000015
:020000040000fa
:0401c4002402000011
:020000040000fa
:0401c800240200000d
:020000040000fa
:0401cc002402000009
:020000040000fa
:0401d0002402000005
:020000040000fa
:0401d4002402000001
:020000040000fa
:0401d80024020000fd
:020000040000fa
:100200000f8020000eff20000e018800000000007b
:10021000000020000000e000020032000001200089
:100220002002880014000700890007000000e00099
:1002300003003a0000002000010020000200370007
:100240000000200001002000810f7000010032003a
:1002500014000700000020000000e000020032004f
:100260000000020000000000440202000000000044
:100270000040da000000fe004440a9000000200019
:100280000000e0000300320000002000a001880010
:100290004440a800000006008a1f78008b1f7800e9
:1002a0000000060091018800800478000000eb0047
:1002b0001a003700e284440032a0b4009905ba0065
:1002c000e284440032a0b4009906ba00e2844400fb
:1002d00032a0b4000006eb00476fde00fd07b2005d
:1002e000636ce10003003a00ebff07000000eb0045
:1002f0000a003700606ce10004003a00005deb008a
:100300008b05e900fdff3e00040037006168e10055
:10031000010032000086eb000b00070019c7ba008d
:100320001905ba000e04e00003003a000a00e000dc
:10033000e0ff3a0000000600fe07b2009e018800c0
:100340008a047800f5ff3700395dba008b05e900b3
:100350000c003200295dba008b05e900080032006c
:100360000c00e00003003a00e284440032a0b40034
:10037000f5ff370019ddba008b05e900faff3a00f6
:100380008904e800e184440032a0b40000000600c3
:10039000809fbe003400f80000002000a00188000b
:1003a0000000fa00501680004500de006140600049
:1003b0000004a200614060000080fb00610060005a
:1003c0004500dd00511680000150a10001007000c1
:1003d000501688008460a8000080fa003400f900fc
:1003e0004f00be00004006000000fa008020a90077
:1003f000ffff37000000fa008060a900ffff370010
:100400000000fa008040a900ffff37000000fa005a
:100410008080a900ffff37000000fa008020a900bb
:10042000ffff37000000fa008060a900ffff3700df
:100430000000fa008040a900ffff37000000fa002a
:100440008080a900ffff37000000fa00ffff37009f
:0404500000000500a3
:020000040000fa
:100454000000fa00c6a2a90005e1a9000421a90030
:1004640021088000f0fc2f00008060000050a000f4
:100474002008880080bb2000100888000080fa0053
:10048400000006000000fa0008000700f0ff070063
:100494008460a9008c60a8000000000005e1a800a9
:1004a400ff3ffc000000fc00ffff37000000fa00e3
:0804b4000080fa0000000600c0
:020000040000fa
:0200000401f009
:04000000f0bd00004f
:020000040000fa
:0200000401f009
:04000400ffff0000fa
:020000040000fa
:0200000401f009
:04000800fffb0000fa
:020000040000fa
:0200000401f009
:04001400ffff0000ea
:020000040000fa
:0200000401f009
:04001800ffff0000e6
:00000001FF
