:020000040000fa
:080000000001040000000000f3
:020000040000fa
:040008002e030000c3
:020000040000fa
:04000c00fe020000f0
:020000040000fa
:0400100004030000e5
:020000040000fa
:040014000a030000db
:020000040000fa
:0400180010030000d1
:020000040000fa
:04001c002e030000af
:020000040000fa
:040020002e030000ab
:020000040000fa
:040024002e030000a7
:020000040000fa
:040028002e030000a3
:020000040000fa
:04002c002e0300009f
:020000040000fa
:040030002e0300009b
:020000040000fa
:04003400c8010000ff
:020000040000fa
:040038002e03000093
:020000040000fa
:04003c002e0300008f
:020000040000fa
:04004000ea010000d1
:020000040000fa
:040044002e03000087
:020000040000fa
:040048002e03000083
:020000040000fa
:04004c002e0300007f
:020000040000fa
:04005000f8020000b2
:020000040000fa
:040054002e03000077
:020000040000fa
:040058002e03000073
:020000040000fa
:04005c002e0300006f
:020000040000fa
:040060002e0300006b
:020000040000fa
:040064002e03000067
:020000040000fa
:040068002e03000063
:020000040000fa
:04006c002e0300005f
:020000040000fa
:040070002e0300005b
:020000040000fa
:040074002e03000057
:020000040000fa
:040078002e03000053
:020000040000fa
:04007c002e0300004f
:020000040000fa
:040080002e0300004b
:020000040000fa
:040084002e03000047
:020000040000fa
:040088002e03000043
:020000040000fa
:04008c002e0300003f
:020000040000fa
:040090002e0300003b
:020000040000fa
:040094002e03000037
:020000040000fa
:040098002e03000033
:020000040000fa
:04009c002e0300002f
:020000040000fa
:0400a0002e0300002b
:020000040000fa
:0400a4002e03000027
:020000040000fa
:0400a8002e03000023
:020000040000fa
:0400ac002e0300001f
:020000040000fa
:0400b0002e0300001b
:020000040000fa
:0400b4002e03000017
:020000040000fa
:0400b8002e03000013
:020000040000fa
:0400bc002e0300000f
:020000040000fa
:0400c0002e0300000b
:020000040000fa
:0400c4000e02000028
:020000040000fa
:0400c8002e03000003
:020000040000fa
:0400cc002e030000ff
:020000040000fa
:0400d0002e030000fb
:020000040000fa
:0400d4002e030000f7
:020000040000fa
:0400d8002e030000f3
:020000040000fa
:040108002e030000c2
:020000040000fa
:04010c0016030000d6
:020000040000fa
:040110001c030000cc
:020000040000fa
:0401140022030000c2
:020000040000fa
:0401180028030000b8
:020000040000fa
:04011c002e030000ae
:020000040000fa
:040120002e030000aa
:020000040000fa
:040124002e030000a6
:020000040000fa
:040128002e030000a2
:020000040000fa
:04012c002e0300009e
:020000040000fa
:040130002e0300009a
:020000040000fa
:04013400c8010000fe
:020000040000fa
:040138002e03000092
:020000040000fa
:04013c002e0300008e
:020000040000fa
:04014000ea010000d0
:020000040000fa
:040144002e03000086
:020000040000fa
:040148002e03000082
:020000040000fa
:04014c002e0300007e
:020000040000fa
:04015000f8020000b1
:020000040000fa
:040154002e03000076
:020000040000fa
:040158002e03000072
:020000040000fa
:04015c002e0300006e
:020000040000fa
:040160002e0300006a
:020000040000fa
:040164002e03000066
:020000040000fa
:040168002e03000062
:020000040000fa
:04016c002e0300005e
:020000040000fa
:040170002e0300005a
:020000040000fa
:040174002e03000056
:020000040000fa
:040178002e03000052
:020000040000fa
:04017c002e0300004e
:020000040000fa
:040180002e0300004a
:020000040000fa
:040184002e03000046
:020000040000fa
:040188002e03000042
:020000040000fa
:04018c002e0300003e
:020000040000fa
:040190002e0300003a
:020000040000fa
:040194002e03000036
:020000040000fa
:040198002e03000032
:020000040000fa
:04019c002e0300002e
:020000040000fa
:0401a0002e0300002a
:020000040000fa
:0401a4002e03000026
:020000040000fa
:0401a8002e03000022
:020000040000fa
:0401ac002e0300001e
:020000040000fa
:0401b0002e0300001a
:020000040000fa
:0401b4002e03000016
:020000040000fa
:0401b8002e03000012
:020000040000fa
:0401bc002e0300000e
:020000040000fa
:0401c0002e0300000a
:020000040000fa
:0401c4000e02000027
:020000040000fa
:0401c8002e03000002
:020000040000fa
:0401cc002e030000fe
:020000040000fa
:0401d0002e030000fa
:020000040000fa
:0401d4002e030000f6
:020000040000fa
:0401d8002e030000f2
:020000040000fa
:10020000efe920000eff20000e0188000000000032
:10021000000020000000e000020032000001200089
:1002200020028800140007000e0107000000e00013
:1002300003003a00408c200001002000020037003b
:100240000000200001002000810f7000010032003a
:1002500014000700000020000000e000020032004f
:100260000000020000000000100802000000000072
:100270000040da000000fe004440a9000000200019
:100280000000e0000300320000002000a001880010
:100290004440a800000006008a1f78008b1f7800e9
:1002a0000000060091018800800478000000eb0047
:1002b0001a003700e284440032a0b4009905ba0065
:1002c000e284440032a0b4009906ba00e2844400fb
:1002d00032a0b4000006eb00476fde00fd07b2005d
:1002e000636ce10003003a00ebff07000000eb0045
:1002f0000a003700606ce10004003a00005deb008a
:100300008b05e900fdff3e00040037006168e10055
:10031000010032000086eb000b00070019c7ba008d
:100320001905ba000e04e00003003a000a00e000dc
:10033000e0ff3a0000000600fe07b2009e018800c0
:100340008a047800f5ff3700395dba008b05e900b3
:100350000c003200295dba008b05e900080032006c
:100360000c00e00003003a00e284440032a0b40034
:10037000f5ff370019ddba008b05e900faff3a00f6
:100380008904e800e184440032a0b40000000600c3
:1003900000a0fe000000fa00101780000040780066
:1003a000614060000004a200614060000080fb002a
:1003b00061006000111780000100a10001007000c1
:1003c000101788008460a9000080fa000080fe00f9
:1003d0000040060000a0fe000000fa001017800098
:1003e0000000d100614060000004a2006140600094
:1003f0000080fb00610060000000400011178000d9
:100400000110a100010070001017880084c0a9002d
:100410000080fa000080fe000040060000a0fe0000
:100420003600f800849fbe00869fbe00889fbe00f5
:100430000400fa0000728000117280006100400028
:10044000e08048000072880011728800007280000d
:10045000117280004201200003002000820007008a
:10046000e00f5000e08f580007003a002072800033
:100470003172800061004000e080480020728800f6
:10048000317288000100370000000000d60207002a
:100490000004e000fdff3a0010c0b300c8020700ee
:1004a0007072880070728000110020001f02070027
:1004b00040738800506920007b0107001000200075
:1004c0009201070060738000b07288009172800012
:1004d000f0182000808f50000a003e0090728000cb
:1004e000417380000001400000b220000000410084
:1004f00001087800907280000000e8009072880087
:100500000100370000000000b70207000004e0000f
:10051000fdff3a0010c0b300a90207006072880016
:10052000607280008000eb0000020700c07288004b
:1005300090002000440107000000eb007301070059
:10054000e0728000cf80de00222e20000289b900f8
:10055000020178006002b9008401780003014100c3
:10056000232e20000300b800010141008200780022
:10057000008fbe00008fbe001e00be00408cde005b
:10058000cf8cde00080078001017b000000040009b
:10059000b00e8800b00e8000c00e8800817280000e
:1005a000f0182000808f500009003e00807280000b
:1005b000c172800000014000008020000000410066
:1005c00001087800807280000000e80080728800d6
:1005d00088e0a9000080fa004f04be004f03be006f
:1005e0004f02be003600f9000080fe000040060009
:1005f0000000fa000080fa00004006000000fa0047
:100600008020a900ffff37000000fa008060a900e9
:10061000ffff37000000fa008040a900ffff37000d
:100620000000fa008080a900ffff37000000fa00f8
:100630008020a900ffff37000000fa008060a900b9
:10064000ffff37000000fa008040a900ffff3700dd
:100650000000fa008080a900ffff37000000fa00c8
:10066000ffff370000000500020007000400be0085
:10067000000006006022b800060220000000d00042
:100680008180d2000482d2008582d2000000a000c6
:100690000202520083825a0003003100020242002b
:1006a00083824a000000a1000603e900f3ff3a003c
:1006b00000000600800178000200370081597800b0
:1006c0000201e9000200e000fcff3a000000060021
:020000040000fa
:1006d0000000fa0040032000a01088000de2a900ed
:1006e0000da2a8000d42a9000ca2a9006110800073
:1006f00090ff2f0000806000601088000c02a900ad
:100700000fe2a9008540a9008d40a900c104800026
:10071000f08f2f00008060000080a000c0048800df
:100720000de2a8000f42a8000080fa0000000600b9
:100730000200fa00000f7800601080006600600080
:10074000e60f500003003a001e0078008010880079
:10075000040037009e007800f00f20000080600049
:10076000801088000080fa00000006000000fa00f7
:1007700071108000001020000080600000f0a700d1
:100780000000ea000000e9004f00de0000407800b1
:100790000080fa00000006000000fa000de2a90047
:1007a0008d20a9008d40a9008520a9008540a900c1
:1007b0000080fa00000006000c00fa0050079800c4
:1007c00004000900001feb00ae00b10000000000b3
:1007d000e6ff07000004e000fdff3a005e00900025
:1007e0000000e00009003d00d0022000d0ff07001b
:1007f00000000000ddff07000004e000fdff3a00fc
:100800005e0090000000ea0050079800de009000b3
:10081000a000200000017800110009008200d8002b
:100820008000fd00000f78005e01900070662600d9
:100830000090b900c288de004f90de0000805000ba
:1008400050079800de009000706626000089b9000d
:100850004299de004f88de00000051006a01b900b5
:100860000200780000805000100798005e019000a0
:10087000706626000090b900c288de004f90de004e
:100880000080500050079800de009000706626003f
:100890000089b9004299de004f88de000000510057
:1008a0006a01b9000200780000805000200798001b
:1008b0005e019000706626000090b900c288de00dc
:1008c0004f90de000080500050079800de0090003e
:1008d000706626000089b9004299de004f88de006c
:1008e000000051006a01b900020078000080500049
:1008f000300798005e019000706626000090b900f5
:10090000c288de004f90de00008050005007980043
:10091000de009000706626000089b9004299de0072
:100920004f88de00000051006a01b9000200780023
:100930000080500040079800000000008bff070077
:100940000004e000fdff3a004e0090000003b000fc
:1009500077ff07000000000084ff07000004e000ac
:10096000fdff3a003e0090000003b00070ff07005a
:10097000000000007dff07000004e000fdff3a00da
:100980002e0090000003b00069ff07000000000087
:1009900076ff07000004e000fdff3a001e00900013
:1009a0000003b00062ff0700000000006fff0700b7
:1009b0000004e000fdff3a001e0078000003b000d4
:1009c0005bff07000000000068ff07000004e00074
:1009d000fdff3a000080fa00000006000000fa0067
:1009e0000000000061ff07000004e000fdff3a0086
:1009f000d00020004eff0700000000005bff070052
:100a00000004e000fdff3a00a000200048ff0700be
:100a10000000000055ff07000004e000fdff3a0061
:100a20000080fa00000006000000fa001302070030
:100a3000d00107001d0107007501070024ff070012
:100a40000080fa00000006000200fa00000f7800a3
:100a50001e007800f20f4000090035001e007800eb
:100a6000f20f500006003c009e007800c07120008c
:100a70000088b90000007800b072880008003700d4
:100a80001e007800f10f5000030034000000280021
:100a9000b07288000200370000002800b0728800a1
:100aa0000080fa00000006000200fa00000f780043
:100ab000602d2f009e007800808f500008003500c8
:100ac000a0d220009e007800808f500004003c00df
:100ad0001e007800000040003073880009003700d5
:100ae00090d220009e007800808f500003003400d8
:100af00000002200307388000200370000002e0042
:100b0000307388000080fa00000006000e00fa0032
:100b1000889fbe008a9fbe008c9fbe003007980051
:100b20000000eb00000f78000000eb0010079800b9
:100b30000000eb00200798003e0090000000e0005d
:100b400035003a00d1728000010f7800b172800048
:100b5000c072800000805000d0728800d072800087
:100b60001e00500010079800f07280006101b9006b
:100b70001e009000cf80de00009ab90004027800c9
:100b8000028bb9005607980067079800de029000b4
:100b9000050242000010b800010242008400780003
:100ba0004109dd004f03de0006037100cf8bde003c
:100bb0008600780041079800007380006101b90049
:100bc000d0728000cf80de00009ab9000402780065
:100bd000028bb90086027800050242000010b800be
:100be00001024200840078004109dd004f06de006a
:100bf0000c067100cf8ede000c0078004e039000d2
:100c00000000430020079800e17280002e00900051
:100c100000804000e07288003e009000e10f50002c
:100c20003d003a0057738000070f78003173800051
:100c30004073800000805000507388005073800023
:100c40001e00100010079800707380006101b90049
:100c50001e009000cf80de00009ab90004027800e8
:100c6000028bb90086027800050242000010b8002d
:100c700001024200840078004309dd004d05de00da
:100c80000a057100cd8dde000a05780080738000b2
:100c90006101b90050738000cf80de00009ab90076
:100ca00004027800028bb900860278000502420037
:100cb0000010b8000102420084007800430bdd0000
:100cc0004d04de0008047300cd8cde0008007800bf
:100cd0000000450020079800617380002e009000fe
:100ce0000080400060738800617380000000220073
:100cf000808f5000020034000000220060738800e2
:100d00006173800000002e00808f500002003d00c3
:100d100000002e00607388004f06be004f05be0025
:100d20004f04be000080fa00000006000600fa0032
:100d300010079800210798000000eb00000f7800d2
:100d40002e0090000000e00003003a001e0090001a
:100d50004500dd00000f78002e009000e10f5000ec
:100d600003003a001e0090004300dd00000f7800f1
:100d70001e0078000080fa00000006000600fa005d
:100d8000000f780011079800424798004e409000ed
:100d90006140600061406000614060000080fb00d5
:100da00061006000510e80000100a1000100700090
:100db000500e88001e00e90000004000800078000e
:100dc000601d2000008040009e0090000108780017
:100dd000ca01a9000080fa00000006000200fa0023
:100de000000f7800c1e1a9009e007800210e880064
:100df000c1a1a800010e8000f0f02f00008060006b
:100e0000000e8800010e800030ff2f00008060007f
:100e1000000e8800010e8000c0ff2f0000806000df
:100e20000010a000000e8800c901a900c921a90076
:100e3000c881a800c801a800c8a1a800c821a800ae
:100e4000510e8000f00f2f00008060000080a00095
:100e5000500e8800ca21a800ca01a900610e8000b6
:100e600000fc2f0000806000600e8800d521a800e3
:100e7000d501a800d561a800d541a80088e0a90047
:100e8000c7e1a80031058000f0ff280080806000e5
:100e900000002500010070003005880090e0a800e7
:100ea000c1e1a8000080fa00000006000000fa007e
:100eb000e07480000041eb0080007800100020000a
:100ec000aeff0700e07480000041eb008000780076
:100ed00020002000a9ff0700202e2000bfff0700f0
:100ee0000080fa00000006000000fa00a1e2a9005c
:100ef000a1a2a80001158000f0cf2f0000806000a3
:100f00000015880001158000f0f12f00808060003e
:100f1000000620000100700000158800a062a800f3
:100f2000a042a80011158000f0ff210000806000a1
:100f3000101588001115800000302000010070009d
:100f400010158800a222a80021158000f00f2e00a5
:100f5000008060000080a00020158800a4e2a900a5
:100f60002115800000fc2f00008060000010a00010
:100f70002015880031158000f0f32f0000806000fc
:100f800030158800a6a2a900a682a900311580000c
:100f900000ff2f0000806000d000b30030158800f3
:100fa000a802a900a822a900a842a900a862a90035
:100fb0008d60a900a1e2a8000080fa0000000600f0
:100fc0000200fa00004f78001e80fb000000400085
:100fd0008000780000282000008040001000780089
:100fe0000080fa00000006000000fa0000158000f2
:100ff0006100600000f0a7000000ea000000e900c6
:101000004f00de00004078000080fa00000006007b
:101010000000fa00b4ff07000080fa00000006009c
:101020000000fa0080fe0700023220008000eb0082
:1010300000b220009ffd0700023220008000eb007c
:10104000008020009bfd0700803e20000100200062
:1010500010000700b0728000d7fd07005ffe070098
:10106000c0728000d4fd07005cfe0700e0728000c3
:10107000d1fd070059fe0700b00e8000cefd07002d
:1010800056fe0700803e20000100200001000700fe
:10109000f0ff37000800fa00200798003107980099
:1010a0002272800033728000028fbe0000000000b8
:1010b00020728000317280003e015000ae815800e5
:1010c0002e009000be009000800f5100818f5900cb
:1010d000f7ff39000080fa00000006000000fa0067
:1010e0000421a900210880000003200001007000f5
:1010f0002008880080c1230010088800a104800017
:10110000f0ff28000080600000d0a000a00488004c
:101110008460a9008c60a8000000000005e1a80020
:101120000080fa00000006000000fa001021a9006b
:101130008108800000032000010070008008880002
:1011400040c0200060088800b1048000f08f2f00ac
:10115000008060000090a000b004880084c0a90056
:101160008cc0a8000000000011e1a8000080fa0077
:10117000000006000000fa00d8ff0700eaff0700a1
:081180000080fa0000000600e7
:020000040000fa
:10118800000800005606000000000000960e00004f
:101198000600000000000000560e0000400000009d
:1011a80002000000000000000000000000004300f2
:1011b800000800000080000080000000000000001f
:1011c800000000003d2acd000c00200000e00000d7
:1011d80000403f005b9459003b892900913b330054
:1011e80033333f000ad7a3003c6101002a0d5800a1
:1011f8000204010011000000000000009c0e000025
:101208000200000002000000e202000000000000ee
:020000040000fa
:101218000000fa00de02a900de22a900de42a900d1
:10122800de62a900de82a900dea2a9000080fa0021
:10123800000006000000fa00d802a900d822a90080
:10124800d842a900d862a900d882a900d8a2a900ca
:101258000080fa00000006000000fa00c602a8009c
:10126800c622a800c642a800c662a8000080fa00ec
:10127800000006000000fa00e5ff0700edff070088
:0c128800f5ff07000080fa0000000600df
:020000040000fa
:0200000401f009
:04000000f5bf000048
:020000040000fa
:0200000401f009
:04000400ff7f00007a
:020000040000fa
:0200000401f009
:04000800fffb0000fa
:020000040000fa
:0200000401f009
:04001400ffff0000ea
:020000040000fa
:0200000401f009
:04001800ffff0000e6
:00000001FF
