:020000040000fa
:080000000001040000000000f3
:020000040000fa
:04000800860200006c
:020000040000fa
:04000c005602000098
:020000040000fa
:040010005c0200008e
:020000040000fa
:040014006202000084
:020000040000fa
:04001800680200007a
:020000040000fa
:04001c008602000058
:020000040000fa
:040020008602000054
:020000040000fa
:040024008602000050
:020000040000fa
:04002800860200004c
:020000040000fa
:04002c008602000048
:020000040000fa
:040030008602000044
:020000040000fa
:04003400c8010000ff
:020000040000fa
:04003800860200003c
:020000040000fa
:04003c008602000038
:020000040000fa
:04004000ea010000d1
:020000040000fa
:040044008602000030
:020000040000fa
:04004800860200002c
:020000040000fa
:04004c008602000028
:020000040000fa
:04005000500200005a
:020000040000fa
:040054008602000020
:020000040000fa
:04005800860200001c
:020000040000fa
:04005c008602000018
:020000040000fa
:040060008602000014
:020000040000fa
:040064008602000010
:020000040000fa
:04006800860200000c
:020000040000fa
:04006c008602000008
:020000040000fa
:040070008602000004
:020000040000fa
:040074008602000000
:020000040000fa
:0400780086020000fc
:020000040000fa
:04007c0086020000f8
:020000040000fa
:0400800086020000f4
:020000040000fa
:0400840086020000f0
:020000040000fa
:0400880086020000ec
:020000040000fa
:04008c0086020000e8
:020000040000fa
:0400900086020000e4
:020000040000fa
:0400940086020000e0
:020000040000fa
:0400980086020000dc
:020000040000fa
:04009c0086020000d8
:020000040000fa
:0400a00086020000d4
:020000040000fa
:0400a40086020000d0
:020000040000fa
:0400a80086020000cc
:020000040000fa
:0400ac0086020000c8
:020000040000fa
:0400b00086020000c4
:020000040000fa
:0400b40086020000c0
:020000040000fa
:0400b80086020000bc
:020000040000fa
:0400bc0086020000b8
:020000040000fa
:0400c00086020000b4
:020000040000fa
:0400c4000e02000028
:020000040000fa
:0400c80086020000ac
:020000040000fa
:0400cc0086020000a8
:020000040000fa
:0400d00086020000a4
:020000040000fa
:0400d40086020000a0
:020000040000fa
:0400d800860200009c
:020000040000fa
:04010800860200006b
:020000040000fa
:04010c006e0200007f
:020000040000fa
:040110007402000075
:020000040000fa
:040114007a0200006b
:020000040000fa
:040118008002000061
:020000040000fa
:04011c008602000057
:020000040000fa
:040120008602000053
:020000040000fa
:04012400860200004f
:020000040000fa
:04012800860200004b
:020000040000fa
:04012c008602000047
:020000040000fa
:040130008602000043
:020000040000fa
:04013400c8010000fe
:020000040000fa
:04013800860200003b
:020000040000fa
:04013c008602000037
:020000040000fa
:04014000ea010000d0
:020000040000fa
:04014400860200002f
:020000040000fa
:04014800860200002b
:020000040000fa
:04014c008602000027
:020000040000fa
:040150005002000059
:020000040000fa
:04015400860200001f
:020000040000fa
:04015800860200001b
:020000040000fa
:04015c008602000017
:020000040000fa
:040160008602000013
:020000040000fa
:04016400860200000f
:020000040000fa
:04016800860200000b
:020000040000fa
:04016c008602000007
:020000040000fa
:040170008602000003
:020000040000fa
:0401740086020000ff
:020000040000fa
:0401780086020000fb
:020000040000fa
:04017c0086020000f7
:020000040000fa
:0401800086020000f3
:020000040000fa
:0401840086020000ef
:020000040000fa
:0401880086020000eb
:020000040000fa
:04018c0086020000e7
:020000040000fa
:0401900086020000e3
:020000040000fa
:0401940086020000df
:020000040000fa
:0401980086020000db
:020000040000fa
:04019c0086020000d7
:020000040000fa
:0401a00086020000d3
:020000040000fa
:0401a40086020000cf
:020000040000fa
:0401a80086020000cb
:020000040000fa
:0401ac0086020000c7
:020000040000fa
:0401b00086020000c3
:020000040000fa
:0401b40086020000bf
:020000040000fa
:0401b80086020000bb
:020000040000fa
:0401bc0086020000b7
:020000040000fa
:0401c00086020000b3
:020000040000fa
:0401c4000e02000027
:020000040000fa
:0401c80086020000ab
:020000040000fa
:0401cc0086020000a7
:020000040000fa
:0401d00086020000a3
:020000040000fa
:0401d400860200009f
:020000040000fa
:0401d800860200009b
:020000040000fa
:10020000af8020000eff20000e01880000000000db
:10021000000020000000e000020032000001200089
:100220002002880014000700ba0007000000e00068
:1002300003003a0000862000010020000200370081
:100240000000200001002000810f7000010032003a
:1002500014000700000020000000e000020032004f
:1002600000000200000000006a0702000000000019
:100270000040da000000fe004440a9008001200098
:100280000000e0000300320000002000a001880010
:100290004440a800000006008a1f78008b1f7800e9
:1002a0000000060091018800800478000000eb0047
:1002b0001a003700e284440032a0b4009905ba0065
:1002c000e284440032a0b4009906ba00e2844400fb
:1002d00032a0b4000006eb00476fde00fd07b2005d
:1002e000636ce10003003a00ebff07000000eb0045
:1002f0000a003700606ce10004003a00005deb008a
:100300008b05e900fdff3e00040037006168e10055
:10031000010032000086eb000b00070019c7ba008d
:100320001905ba000e04e00003003a000a00e000dc
:10033000e0ff3a0000000600fe07b2009e018800c0
:100340008a047800f5ff3700395dba008b05e900b3
:100350000c003200295dba008b05e900080032006c
:100360000c00e00003003a00e284440032a0b40034
:10037000f5ff370019ddba008b05e900faff3a00f6
:100380008904e800e184440032a0b40000000600c3
:1003900000a0fe000000fa00101780000040780066
:1003a000614060000004a200614060000080fb002a
:1003b00061006000111780000100a10001007000c1
:1003c000101788008460a9000080fa000080fe00f9
:1003d0000040060000a0fe000000fa001017800098
:1003e0000000d100614060000004a2006140600094
:1003f0000080fb00610060000000400011178000d9
:100400000110a100010070001017880084c0a9002d
:100410000080fa000080fe000040060000a0fe0000
:100420003600f800849fbe00869fbe000200fa00de
:100430000000eb00000f780011158000000820007c
:10044000008060000000e0000e00320030c0b30009
:1004500053020700000f78001e0078008000eb00b8
:100460004800070022852b00e3f723005c0007000b
:100470002900070000007800b00e8800b00e800050
:10048000c00e880088e0a9000080fa004f03be007b
:100490004f02be003600f9000080fe00004006005a
:1004a0000000fa000080fa00004006000000fa0098
:1004b0008020a900ffff37000000fa008060a9003b
:1004c000ffff37000000fa008040a900ffff37005f
:1004d0000000fa008080a900ffff37000000fa004a
:1004e0008020a900ffff37000000fa008060a9000b
:1004f000ffff37000000fa008040a900ffff37002f
:100500000000fa008080a900ffff37000000fa0019
:10051000ffff3700000005000001be001b000700c0
:100520000470a70003f0a10003f8a30013003a0031
:100530006509b10010003200090035006928e100aa
:100540000200350001002800000005000000400006
:10055000818048008502e900fcff3a0000000600a7
:10056000f88f4200050035008100d1000080d300e3
:100570008502e800fcff3a00000006008000eb0066
:10058000000005006011b80049003700c70ade000e
:10059000f107b200f50fb20008003200e1cf4200cf
:1005a000020032000170a00024000500810f7000dd
:1005b000010032000408050044000500810f7000ae
:1005c00002003a00140005008502e9000000400026
:1005d00081c04800fcff3b000170a0002400050022
:1005e000889fbe008a9fbe008c1f78008500070090
:1005f0008c00330003866c006450e100240032005c
:100600006420e100270032006150e1002200320046
:100610006120e100210032008b854200eb07b10030
:100620000134b800003ab8000804420089844a0046
:10063000013ab8000030b8008880400009014a0043
:10064000040033000000400081804800020149009e
:100650008b05e900c909dd0083017000010032004b
:1006600013002000c814de004814dd004709de0036
:100670001200b200c808de00088470003b000700ca
:1006800001f0a1000cf0a70001f0a0006e003700ff
:100690006120e100700032000801be000200be00cf
:1006a000f7ff37006150e100fcff3a006a003700b5
:1006b000889fbe008a9fbe00008270000402710005
:1006c00004827100260032000004be000200be0059
:1006d0006011b8006b092000950220000182cf0054
:1006e0000a0039000541b1000082cf00070039003f
:1006f0000541b1000982cf00040039000541b10075
:100700000882cf00010039000541b10005425200c6
:10071000120032000a003b00828171006101640016
:100720008100d1000080d3008984d3000884d300e5
:100730008b05e8000442e800f7ff3a0007003700a5
:100740000804440089844c0000004800818048006f
:100750008b05e9000442e900f9ff3a0003000700b5
:100760004f05be004f04be000000060081002000bf
:10077000618055000b003d000b00200061fe2f0042
:100780000100e1001d0034008281710061016400fc
:100790008904d1000884d3000000e800faff3a0081
:1007a000710020006100640003007000020060001e
:1007b0000900320061044400e0844c000988a5006f
:1007c000050032008b05e8006808e10002003a00ed
:1007d0008904d1000884d300f20f20000258e10000
:1007e00005003d00c75ddd00f907b2008980750096
:1007f00008007800000006000bf827008b00780046
:10080000000005000004be0060ff07000003be00fa
:100810000405be000200be005cff0700844f7500a7
:10082000000006000200be006450e1000500360032
:100830006420e100020036000968a30001003a00cc
:100840000800be000160a0004f0678004f05be0002
:100850004f04be0000000600f0ff2f00f1ff27004c
:04086000f9ff370065
:020000040000fa
:10086400acc50000a7360000cb9d0000193b00007a
:10087400ac3c0000813900000ad70000a33b000013
:10088400e17a000014400000cdcc0000cc3e000012
:020000040000fa
:100894000000fa0040032000a01088000de2a90027
:1008a4000da2a8000d42a9000ca2a90061108000ad
:1008b40090ff2f0000806000601088000c02a900e7
:1008c4000fe2a9008540a9008d40a900c104800061
:1008d400f08f2f00008060000080a000c00488001a
:1008e4000de2a8000f42a8000080fa0000000600f4
:1008f4000200fa00000f78006010800066006000bb
:10090400e60f500003003a009e0078008110880032
:1009140003003700f00f20001e00600080108800e4
:100924000080fa00000006000000fa007110800048
:10093400001020000080600000f0a7000000ea0022
:100944000000e9004f00de00004078000080fa005b
:10095400000006000c00fa0050079800040009008b
:10096400001feb00ae00b10000000000eeff070026
:100974000004e000fdff3a005e019000d0cc2c00a2
:100984000010b8004308de006a00b90000007800d7
:1009940000005100000f7800de009000d0cc2c0045
:1009a4000008b8004308de00500798005e0190007c
:1009b400d0cc2c000010b8004308de006a00b90057
:1009c400000078000000510010079800de0090003d
:1009d400d0cc2c000008b8004308de005007980073
:1009e4005e019000d0cc2c000010b8004308de005b
:1009f4006a00b90000007800000051002007980048
:100a0400de009000d0cc2c000008b8004308de00c3
:100a1400500798005e019000d0cc2c000010b80064
:100a24004308de006a00b9000000780000005100ad
:100a340030079800de009000d0cc2c000008b800ed
:100a44004308de00500798005e019000d0cc2c00d3
:100a54000010b8004308de006a00b9000000780006
:100a6400000051004007980000000000aeff07009e
:100a74000004e000fdff3a004e0090000003b000c7
:100a84009bff070000000000a7ff07000004e00030
:100a9400fdff3a003e0090000003b00094ff070001
:100aa40000000000a0ff07000004e000fdff3a0082
:100ab4002e0090000003b0008dff0700000000002e
:100ac40099ff07000004e000fdff3a001e009000bb
:100ad4000003b00086ff07000000000092ff07003b
:100ae4000004e000fdff3a001e0078000003b0009f
:100af4007fff0700000000008bff07000004e000f8
:100b0400fdff3a000080fa00000006000000fa0031
:100b14000000000084ff07000004e000fdff3a002d
:100b2400d000200072ff0700000000007eff0700d5
:100b34000004e000fdff3a00a00020006cff070065
:100b44000000000078ff07000004e000fdff3a0009
:100b54000080fa00000006000600fa00000f78008a
:100b640011079800424798004e4090006140600091
:100b740061406000614060000080fb006100600033
:100b8400510e80000100a10001007000500e880089
:100b94001e00e9000000400080007800601d200075
:100ba400008040009e00900001087800ca01a9005e
:100bb4000080fa00000006000200fa00000f78002e
:100bc400c1e1a9009e007800210e8800c1a1a800ff
:100bd400010e8000f0f02f0000806000000e8800fd
:100be400010e800030ff2f0000806000000e88009e
:100bf400010e8000c0ff2f00008060000010a000e4
:100c0400000e8800c901a900c921a900c881a80053
:100c1400c801a800c8a1a800c821a800510e8000de
:100c2400f00f2f00008060000080a000500e8800ac
:100c3400ca21a800ca01a900610e800000fc2f008f
:100c440000806000600e8800d521a800d501a800ae
:100c5400d561a800d541a80088e0a900c7e1a80093
:100c640031058000f0ff280080806000000025002e
:100c7400010070003005880090e0a800c1e1a800e0
:100c84000080fa00000006000000fa0040408000e6
:100c94000041eb008000780010002000aeff070048
:100ca400404080000041eb008000780020002000dc
:100cb400a9ff0700700c2000bfff07000080fa00a6
:100cc400000006000000fa00a1e2a900a1a2a80009
:100cd40001158000f0cf2f0000806000001588000f
:100ce40001158000f0f12f008080600000062000d4
:100cf4000100700000158800a062a800a042a800ae
:100d040011158000f0ff210000806000101588009c
:100d140011158000003020000100700010158800bb
:100d2400a222a80021158000f00f2e000080600090
:100d34000080a00020158800a4e2a90021158000ed
:100d440000fc2f00008060000010a0002015880027
:100d540031158000f0f32f0000806000301588000a
:100d6400a6a2a900a682a9003115800000ff2f00c9
:100d740000806000d000b30030158800a802a900ec
:100d8400a822a900a842a900a862a9008d60a90010
:100d9400a1e2a8000080fa00000006000200fa00a8
:100da400004f78001e80fb000000400080007800a7
:100db4000028200000804000100078000080fa0025
:100dc400000006000000fa00beff07000080fa00e1
:100dd400000006000000fa00b200070093000700bc
:100de400a9ff0700f7ff0700a9fe07000080fa002b
:100df400000006000a00fa000000eb00000f780073
:100e04000000eb00100798000000eb00200798009a
:100e1400700c200030079800700c200040079800e8
:100e24000080fa00000006001800fa0021432800a0
:100e34000b000900311f78008e01b1000080fa0018
:100e4400000006002000fa000f000900001feb005c
:100e54000e02b1000000200001f42300008fbe0048
:100e6400b045290091b52300200798003107980068
:100e74009098220011b92300400798005107980068
:100e84003033230031f32300600798007107980082
:100e9400a0702d0031ca2300000f9800110f980094
:100ea40010162000200f9800a0d22000300f9800c8
:100eb40080252000400f980040102000500f98001b
:100ec40010c1b300405f98000080fa0000000600e3
:100ed4000000fa00bfff0700daff0700c5ff0700a4
:100ee400d1ff070001003700000000001115800049
:100ef40000082000008060000000e000faff3200db
:100f0400110007003014800092fe0700fffe070066
:100f14000071220001000700f4ff37000400fa000a
:100f2400100798009e009000010f78000100370020
:100f34001e0fe9001e0078000000e000fcff3a00ec
:100f44000080fa00000006000200fa00881f780002
:100f54000040eb00004f7800080037001e84fb00bf
:100f64001e4078008dff07000280200088004400a6
:100f740081004100800878001e4fe8001e40780080
:100f8400e34f5000f5ff36004f0478000080fa006c
:100f9400000006000000fa000421a90021088000d6
:100fa40000032000010070002008880080c1230095
:100fb40010088800a1048000f0ff28000080600071
:100fc40000d0a000a00488008460a9008c60a80060
:100fd4000000000005e1a8000080fa0000000600ff
:100fe4000000fa001021a9008108800000032000fd
:100ff400010070008008880040c02000600888005c
:10100400b1048000f08f2f00008060000090a000e9
:10101400b004880084c0a9008cc0a80000000000af
:1010240011e1a8000080fa00000006000000fa00a8
:10103400d8ff0700eaff07000080fa00000006005e
:101044000000fa00de02a900de22a900de42a900a7
:10105400de62a900de82a900dea2a9000080fa00f7
:10106400000006000000fa00d802a900d822a90056
:10107400d842a900d862a900d882a900d8a2a900a0
:101084000080fa00000006000000fa00c602a80072
:10109400c622a800c642a800c662a8000080fa00c2
:1010a400000006000000fa00e5ff0700edff07005e
:0c10b400f5ff07000080fa0000000600b5
:020000040000fa
:1010c0000008000008000000000000000808000000
:1010d0000200000002000000c70000000000000045
:020000040000fa
:0200000401f009
:04000000f5bf000048
:020000040000fa
:0200000401f009
:04000400ff7f00007a
:020000040000fa
:0200000401f009
:04000800fffb0000fa
:020000040000fa
:0200000401f009
:04001400ffff0000ea
:020000040000fa
:0200000401f009
:04001800ffff0000e6
:00000001FF
