:020000040000fa
:080000000001040000000000f3
:020000040000fa
:040008006202000090
:020000040000fa
:04000c0032020000bc
:020000040000fa
:0400100038020000b2
:020000040000fa
:040014003e020000a8
:020000040000fa
:04001800440200009e
:020000040000fa
:04001c00620200007c
:020000040000fa
:040020006202000078
:020000040000fa
:040024006202000074
:020000040000fa
:040028006202000070
:020000040000fa
:04002c00620200006c
:020000040000fa
:040030006202000068
:020000040000fa
:04003400c8010000ff
:020000040000fa
:040038006202000060
:020000040000fa
:04003c00620200005c
:020000040000fa
:04004000ea010000d1
:020000040000fa
:040044006202000054
:020000040000fa
:040048006202000050
:020000040000fa
:04004c00620200004c
:020000040000fa
:040050002c0200007e
:020000040000fa
:040054006202000044
:020000040000fa
:040058006202000040
:020000040000fa
:04005c00620200003c
:020000040000fa
:040060006202000038
:020000040000fa
:040064006202000034
:020000040000fa
:040068006202000030
:020000040000fa
:04006c00620200002c
:020000040000fa
:040070006202000028
:020000040000fa
:040074006202000024
:020000040000fa
:040078006202000020
:020000040000fa
:04007c00620200001c
:020000040000fa
:040080006202000018
:020000040000fa
:040084006202000014
:020000040000fa
:040088006202000010
:020000040000fa
:04008c00620200000c
:020000040000fa
:040090006202000008
:020000040000fa
:040094006202000004
:020000040000fa
:040098006202000000
:020000040000fa
:04009c0062020000fc
:020000040000fa
:0400a00062020000f8
:020000040000fa
:0400a40062020000f4
:020000040000fa
:0400a80062020000f0
:020000040000fa
:0400ac0062020000ec
:020000040000fa
:0400b00062020000e8
:020000040000fa
:0400b40062020000e4
:020000040000fa
:0400b80062020000e0
:020000040000fa
:0400bc0062020000dc
:020000040000fa
:0400c00062020000d8
:020000040000fa
:0400c4000e02000028
:020000040000fa
:0400c80062020000d0
:020000040000fa
:0400cc0062020000cc
:020000040000fa
:0400d00062020000c8
:020000040000fa
:0400d40062020000c4
:020000040000fa
:0400d80062020000c0
:020000040000fa
:04010800620200008f
:020000040000fa
:04010c004a020000a3
:020000040000fa
:040110005002000099
:020000040000fa
:04011400560200008f
:020000040000fa
:040118005c02000085
:020000040000fa
:04011c00620200007b
:020000040000fa
:040120006202000077
:020000040000fa
:040124006202000073
:020000040000fa
:04012800620200006f
:020000040000fa
:04012c00620200006b
:020000040000fa
:040130006202000067
:020000040000fa
:04013400c8010000fe
:020000040000fa
:04013800620200005f
:020000040000fa
:04013c00620200005b
:020000040000fa
:04014000ea010000d0
:020000040000fa
:040144006202000053
:020000040000fa
:04014800620200004f
:020000040000fa
:04014c00620200004b
:020000040000fa
:040150002c0200007d
:020000040000fa
:040154006202000043
:020000040000fa
:04015800620200003f
:020000040000fa
:04015c00620200003b
:020000040000fa
:040160006202000037
:020000040000fa
:040164006202000033
:020000040000fa
:04016800620200002f
:020000040000fa
:04016c00620200002b
:020000040000fa
:040170006202000027
:020000040000fa
:040174006202000023
:020000040000fa
:04017800620200001f
:020000040000fa
:04017c00620200001b
:020000040000fa
:040180006202000017
:020000040000fa
:040184006202000013
:020000040000fa
:04018800620200000f
:020000040000fa
:04018c00620200000b
:020000040000fa
:040190006202000007
:020000040000fa
:040194006202000003
:020000040000fa
:0401980062020000ff
:020000040000fa
:04019c0062020000fb
:020000040000fa
:0401a00062020000f7
:020000040000fa
:0401a40062020000f3
:020000040000fa
:0401a80062020000ef
:020000040000fa
:0401ac0062020000eb
:020000040000fa
:0401b00062020000e7
:020000040000fa
:0401b40062020000e3
:020000040000fa
:0401b80062020000df
:020000040000fa
:0401bc0062020000db
:020000040000fa
:0401c00062020000d7
:020000040000fa
:0401c4000e02000027
:020000040000fa
:0401c80062020000cf
:020000040000fa
:0401cc0062020000cb
:020000040000fa
:0401d00062020000c7
:020000040000fa
:0401d40062020000c3
:020000040000fa
:0401d80062020000bf
:020000040000fa
:100200002f8020000eff20000e018800000000005b
:10021000000020000000e000020032000001200089
:100220002002880014000700a80007000000e0007a
:1002300003003a00e05420000100200002003700d3
:100240000000200001002000810f7000010032003a
:1002500014000700000020000000e000020032004f
:1002600000000200000000009204020000000000f4
:100270000040da000000fe004440a9008001200098
:100280000000e0000300320000002000a001880010
:100290004440a800000006008a1f78008b1f7800e9
:1002a0000000060091018800800478000000eb0047
:1002b0001a003700e284440032a0b4009905ba0065
:1002c000e284440032a0b4009906ba00e2844400fb
:1002d00032a0b4000006eb00476fde00fd07b2005d
:1002e000636ce10003003a00ebff07000000eb0045
:1002f0000a003700606ce10004003a00005deb008a
:100300008b05e900fdff3e00040037006168e10055
:10031000010032000086eb000b00070019c7ba008d
:100320001905ba000e04e00003003a000a00e000dc
:10033000e0ff3a0000000600fe07b2009e018800c0
:100340008a047800f5ff3700395dba008b05e900b3
:100350000c003200295dba008b05e900080032006c
:100360000c00e00003003a00e284440032a0b40034
:10037000f5ff370019ddba008b05e900faff3a00f6
:100380008904e800e184440032a0b40000000600c3
:1003900000a0fe000000fa00101780000040780066
:1003a000614060000004a200614060000080fb002a
:1003b00061006000111780000100a10001007000c1
:1003c000101788008460a9000080fa000080fe00f9
:1003d0000040060000a0fe000000fa001017800098
:1003e0000000d100614060000004a2006140600094
:1003f0000080fb00610060000000400011178000d9
:100400000110a100010070001017880084c0a9002d
:100410000080fa000080fe000040060000a0fe0000
:100420000000fa0011158000000820000080600024
:100430000000e0000400320030148000b00e88009c
:10044000b00e8000c00e880088e0a9000080fa008d
:100450000080fe00004006000000fa000080fa0064
:10046000004006000000fa008020a900ffff3700ce
:100470000000fa008060a900ffff37000000fa00ca
:100480008040a900ffff37000000fa008080a9002b
:10049000ffff37000000fa008020a900ffff3700af
:1004a0000000fa008060a900ffff37000000fa009a
:1004b0008040a900ffff37000000fa008080a900fb
:1004c000ffff37000000fa00ffff370000000500c3
:020000040000fa
:1004d000acc50000a7360000cb9d0000193b000012
:1004e000ac3c0000813900000ad70000a33b0000ab
:1004f000e17a000014400000cdcc0000cc3e0000aa
:020000040000fa
:100500000600fa00000f7800110798004247980093
:100510004e409000614060006140600061406000ba
:100520000080fb0061006000510e80000100a1000e
:1005300001007000500e88001e00e900000040001d
:1005400080007800601d2000008040009e00900028
:1005500001087800ca01a9000080fa000000060026
:100560000200fa00000f7800c1e1a9009e007800a7
:10057000210e8800c1a1a800010e8000f0f02f001c
:1005800000806000000e8800010e800030ff2f0008
:1005900000806000000e8800010e8000c0ff2f0068
:1005a000008060000010a000000e8800c901a900b2
:1005b000c921a900c881a800c801a800c8a1a80035
:1005c000c821a800510e8000f00f2f0000806000ad
:1005d0000080a000500e8800ca21a800ca01a9000e
:1005e000610e800000fc2f0000806000600e88001b
:1005f000d521a800d501a800d561a800d541a80043
:1006000088e0a900c7e1a80031058000f0ff2800bc
:100610008080600000002500010070003005880027
:1006200090e0a800c1e1a8000080fa0000000600e8
:100630000000fa00004080000041eb0080007800dc
:1006400010002000aeff0700004080000041eb00da
:100650008000780020002000a9ff0700700c200017
:10066000bfff07000080fa00000006000000fa004b
:10067000a1e2a900a1a2a80001158000f0cf2f00df
:10068000008060000015880001158000f0f12f0047
:1006900080806000000620000100700000158800c6
:1006a000a062a800a042a80011158000f0ff210060
:1006b00000806000101588001115800000302000b7
:1006c0000100700010158800a222a80021158000ea
:1006d000f00f2e00008060000080a0002015880030
:1006e000a4e2a9002115800000fc2f00008060001a
:1006f0000010a0002015880031158000f0f32f00b5
:100700000080600030158800a6a2a900a682a9007a
:100710003115800000ff2f0000806000d000b30082
:1007200030158800a802a900a822a900a842a900a3
:10073000a862a9008d60a900a1e2a8000080fa00cb
:10074000000006000200fa00004f78001e80fb0047
:100750000000400080007800002820000080400059
:10076000100078000080fa00000006000000fa0087
:10077000beff07000080fa00000006000000fa003b
:10078000a800070062000700a9ff0700f7ff0700a5
:10079000aa0007000080fa00000006000a00fa0024
:1007a0000000eb00000f78000000eb00100798003d
:1007b0000000eb0020079800700c20003007980024
:1007c000700c2000400798000080fa00000006002e
:1007d0001800fa00812628000b000900311f78005c
:1007e0008e01b1000080fa00000006002000fa002f
:1007f0000f000900001feb000e02b10000002000f6
:1008000001f42300008fbe00b045290091b52300fc
:1008100020079800310798009098220011b9230012
:1008200040079800510798003033230031f323002c
:100830006007980071079800a0702d0031ca23004e
:10084000000f9800110f980010162000200f98003c
:10085000a0d22000300f980080252000400f980083
:1008600040102000500f980010c1b300405f980066
:100870000080fa00000006000000fa000421a90030
:10088000210880000003200001007000200888007b
:1008900080c1230010088800a1048000f0ff280018
:1008a0000080600000d0a000a00488008460a9003f
:1008b0008c60a8000000000005e1a8000080fa009c
:1008c000000006000000fa001021a9008108800045
:1008d00000032000010070008008880040c0200054
:1008e00060088800b1048000f08f2f000080600055
:1008f0000090a000b004880084c0a9008cc0a800ab
:100900000000000011e1a8000080fa0000000600cd
:100910000000fa00d8ff0700eaff07000080fa0095
:10092000000006000000fa0094ff0700afff070078
:100930009aff0700a6ff0700f00f20008010880034
:100940007110800000102000008060000000e000b6
:10095000080032001022ef001000200080108800f4
:100960002000200080108800b00e80000000d10020
:100970008010880009000700efff37000000fa0030
:100980000000000020048000680060000000e0001b
:10099000fcff32000080fa00000006000000fa00b0
:1009a000000000002104800000042000008060009e
:1009b0000000e000fbff32000080fa0000000600ab
:1009c0000000fa00de02a900de22a900de42a90032
:1009d000de62a900de82a900dea2a9000080fa0082
:1009e000000006000000fa00d802a900d822a900e1
:1009f000d842a900d862a900d882a900d8a2a9002b
:100a00000080fa00000006000000fa00c602a800fc
:100a1000c622a800c642a800c662a8000080fa004c
:100a2000000006000000fa00e5ff0700edff0700e8
:100a3000f5ff07000080fa00000006000000fa0041
:100a400040032000a01088000de2a9000da2a8001c
:100a50000d42a9000ca2a9006110800090ff2f0098
:100a600000806000601088000c02a9000fe2a9005d
:100a70008540a9008d40a900c1048000f08f2f009f
:100a8000008060000080a000c00488000de2a80083
:0c0a90000f42a8000080fa0000000600e1
:020000040000fa
:100a9c00000800000200000002000000c700000077
:040aac000000000046
:020000040000fa
:0200000401f009
:04000000f5bf000048
:020000040000fa
:0200000401f009
:04000400ff7f00007a
:020000040000fa
:0200000401f009
:04000800fffb0000fa
:020000040000fa
:0200000401f009
:04001400ffff0000ea
:020000040000fa
:0200000401f009
:04001800ffff0000e6
:00000001FF
