:020000040000fa
:080000000001040000000000f3
:020000040000fa
:04000800fc020000f6
:020000040000fa
:04000c00cc02000022
:020000040000fa
:04001000d202000018
:020000040000fa
:04001400d80200000e
:020000040000fa
:04001800de02000004
:020000040000fa
:04001c00fc020000e2
:020000040000fa
:04002000fc020000de
:020000040000fa
:04002400fc020000da
:020000040000fa
:04002800fc020000d6
:020000040000fa
:04002c00fc020000d2
:020000040000fa
:04003000fc020000ce
:020000040000fa
:04003400c8010000ff
:020000040000fa
:04003800fc020000c6
:020000040000fa
:04003c00fc020000c2
:020000040000fa
:04004000dc010000df
:020000040000fa
:04004400fc020000ba
:020000040000fa
:04004800fc020000b6
:020000040000fa
:04004c00fc020000b2
:020000040000fa
:04005000fc020000ae
:020000040000fa
:04005400fc020000aa
:020000040000fa
:04005800fc020000a6
:020000040000fa
:04005c00fc020000a2
:020000040000fa
:04006000fc0200009e
:020000040000fa
:04006400fc0200009a
:020000040000fa
:04006800fc02000096
:020000040000fa
:04006c00fc02000092
:020000040000fa
:04007000fc0200008e
:020000040000fa
:04007400fc0200008a
:020000040000fa
:04007800fc02000086
:020000040000fa
:04007c00fc02000082
:020000040000fa
:04008000fc0200007e
:020000040000fa
:04008400fc0200007a
:020000040000fa
:04008800fc02000076
:020000040000fa
:04008c00fc02000072
:020000040000fa
:04009000fc0200006e
:020000040000fa
:04009400fc0200006a
:020000040000fa
:04009800fc02000066
:020000040000fa
:04009c00fc02000062
:020000040000fa
:0400a000fc0200005e
:020000040000fa
:0400a400fc0200005a
:020000040000fa
:0400a800fc02000056
:020000040000fa
:0400ac00fc02000052
:020000040000fa
:0400b000fc0200004e
:020000040000fa
:0400b400fc0200004a
:020000040000fa
:0400b800fc02000046
:020000040000fa
:0400bc00fc02000042
:020000040000fa
:0400c000fc0200003e
:020000040000fa
:0400c4000602000030
:020000040000fa
:0400c800fc02000036
:020000040000fa
:0400cc00fc02000032
:020000040000fa
:0400d000fc0200002e
:020000040000fa
:0400d400fc0200002a
:020000040000fa
:0400d800fc02000026
:020000040000fa
:04010800fc020000f5
:020000040000fa
:04010c00e402000009
:020000040000fa
:04011000ea020000ff
:020000040000fa
:04011400f0020000f5
:020000040000fa
:04011800f6020000eb
:020000040000fa
:04011c00fc020000e1
:020000040000fa
:04012000fc020000dd
:020000040000fa
:04012400fc020000d9
:020000040000fa
:04012800fc020000d5
:020000040000fa
:04012c00fc020000d1
:020000040000fa
:04013000fc020000cd
:020000040000fa
:04013400c8010000fe
:020000040000fa
:04013800fc020000c5
:020000040000fa
:04013c00fc020000c1
:020000040000fa
:04014000dc010000de
:020000040000fa
:04014400fc020000b9
:020000040000fa
:04014800fc020000b5
:020000040000fa
:04014c00fc020000b1
:020000040000fa
:04015000fc020000ad
:020000040000fa
:04015400fc020000a9
:020000040000fa
:04015800fc020000a5
:020000040000fa
:04015c00fc020000a1
:020000040000fa
:04016000fc0200009d
:020000040000fa
:04016400fc02000099
:020000040000fa
:04016800fc02000095
:020000040000fa
:04016c00fc02000091
:020000040000fa
:04017000fc0200008d
:020000040000fa
:04017400fc02000089
:020000040000fa
:04017800fc02000085
:020000040000fa
:04017c00fc02000081
:020000040000fa
:04018000fc0200007d
:020000040000fa
:04018400fc02000079
:020000040000fa
:04018800fc02000075
:020000040000fa
:04018c00fc02000071
:020000040000fa
:04019000fc0200006d
:020000040000fa
:04019400fc02000069
:020000040000fa
:04019800fc02000065
:020000040000fa
:04019c00fc02000061
:020000040000fa
:0401a000fc0200005d
:020000040000fa
:0401a400fc02000059
:020000040000fa
:0401a800fc02000055
:020000040000fa
:0401ac00fc02000051
:020000040000fa
:0401b000fc0200004d
:020000040000fa
:0401b400fc02000049
:020000040000fa
:0401b800fc02000045
:020000040000fa
:0401bc00fc02000041
:020000040000fa
:0401c000fc0200003d
:020000040000fa
:0401c400060200002f
:020000040000fa
:0401c800fc02000035
:020000040000fa
:0401cc00fc02000031
:020000040000fa
:0401d000fc0200002d
:020000040000fa
:0401d400fc02000029
:020000040000fa
:0401d800fc02000025
:020000040000fa
:100200008f8520000eff20000e01880000000000f6
:10021000000020000000e000020032000001200089
:100220002002880014000700f50007000000e0002d
:1002300003003a0060bf20000100200002003700e8
:100240000000200001002000810f7000010032003a
:1002500014000700000020000000e000020032004f
:100260000000020000000000460b02000000000039
:100270000040da000000fe004440a9000000200019
:100280000000e0000300320000002000a001880010
:100290004440a800000006008a1f78008b1f7800e9
:1002a0000000060091018800800478000000eb0047
:1002b0001a003700e284440032a0b4009905ba0065
:1002c000e284440032a0b4009906ba00e2844400fb
:1002d00032a0b4000006eb00476fde00fd07b2005d
:1002e000636ce10003003a00ebff07000000eb0045
:1002f0000a003700606ce10004003a00005deb008a
:100300008b05e900fdff3e00040037006168e10055
:10031000010032000086eb000b00070019c7ba008d
:100320001905ba000e04e00003003a000a00e000dc
:10033000e0ff3a0000000600fe07b2009e018800c0
:100340008a047800f5ff3700395dba008b05e900b3
:100350000c003200295dba008b05e900080032006c
:100360000c00e00003003a00e284440032a0b40034
:10037000f5ff370019ddba008b05e900faff3a00f6
:100380008904e800e184440032a0b40000000600c3
:1003900000a0fe000000fa0060428000e10f500063
:1003a00001003a00e202a8008460a9000080fa007f
:1003b0000080fe000040060000a0fe000000fa00e1
:1003c00060428000e20f50000c003a0010178000dd
:1003d0000000d100614060000004a20061406000a4
:1003e0000080fb00610060000000400011178000e9
:1003f0000110a100010070001017880084c0a9003e
:100400000080fa000080fe000040060000a0fe0010
:100410003600f800849fbe00869fbe00889fbe0005
:100420000600fa0000428000114280006100400096
:10043000e0804800004288001142880000428000ad
:10044000114280004201200003002000b801070093
:10045000e00f5000e08f580007003a002042800073
:100460003142800061004000e08048002042880066
:1004700031428800010037000000000075040700c9
:100480000004e000fdff3a0010c0b300670407005d
:10049000504288005042800011002000be03070037
:1004a0009040880000692000110307001000200020
:1004b00031030700b0408000cf80de00120107004a
:1004c0000200200003b1230065010700ed000700d2
:1004d000000f780090002000eb02070000000000f1
:1004e0005c0407000004e000fdff3a0010c0b30008
:1004f0004e04070040428800404280008000eb002c
:10050000a5030700104088000000eb001a03070055
:1005100030408000cf80de00222e20000289b9000a
:10052000020178006002b9008401780003014100f3
:10053000232e20000300b800010141008200780052
:1005400010079800210798001007980021079800cd
:100550001e009000ae009000408cde00cf8cde00cc
:10056000080078001017b00000004000b00e8800ae
:10057000b00e8000c00e880088e0a9000080fa005c
:100580004f04be004f03be004f02be003600f9000c
:100590000080fe00004006000000fa008020a90054
:1005a000ffff37000000fa008060a900ffff37005e
:1005b0000000fa008040a900ffff37000000fa00a9
:1005c0008080a900ffff37000000fa008020a9000a
:1005d000ffff37000000fa008060a900ffff37002e
:1005e0000000fa008040a900ffff37000000fa0079
:1005f0008080a900ffff37000000fa00ffff3700ee
:100600000000050003f0a200889fbe008a9fbe0084
:100610008c1f7800fa000700010133006450e100ec
:100620004f0032006420e1005200320003826c006f
:1006300007003b000905d0000306d000820f5400dc
:100640000c065d00020039000200320089017800ca
:10065000030678008582550004003d000003fd007c
:100660008103fd008502ea008b854200840f720041
:1006700002003b0060001000e08018006011b8002c
:100680000005eb007a28e1000a0039000600780036
:10069000c75ddd00f707b200878075002d003700c9
:1006a000828171000a017800610560008180d100bb
:1006b0000080d3008502e900f9ff3b0006044000fa
:1006c0008784480002003b0060041400e0841c00a2
:1006d0000988a300070032008a81710082817100bd
:1006e000610164008904d1000884d3008b05e8000f
:1006f000170037000978a30013003a000b00e00050
:10070000130034008b05e9000804440089844c0080
:100710000a4474000978a3000d003a000b00e000c1
:10072000070034008b05e9000804440089844c006c
:1007300001003a000b0020000978a300f7ff320007
:100740000001eb0002003700828171000a0178008d
:10075000700007000cf0a70001f0a000b9003700fe
:100760006420e10002003a00838f6c00b90033007e
:100770000801be000200be00b2003700889fbe0024
:100780008a9fbe008c1f78009d000700a4003300e4
:1007900003866c006450e1002e0032006420e1000a
:1007a000330032006150e1002f0032006120e1008f
:1007b0003100320085855500eb07b00009002000ac
:1007c00008042000050037000804440089844c0018
:1007d0000a0031000603430087834b0000015300e9
:1007e00081815b00f8ff33000203be000800a00017
:1007f0000804440089844c00f6ff3900c639dd0046
:100800008301730001003200130020008904d1002d
:100810000884d3000998a300050032000800a7004f
:100820000300a0008904d1000884d3008b05e800f0
:100830008904d1000884d3000001eb000281d200ba
:100840003400070001f0a1000cf0a70001f0a000a7
:100850007c0037006420e1007e0032000801be0009
:100860000200be00f7ff37006120e100790032008e
:100870006000b800f3ff37000000200001f82700f7
:10088000f0ff37000001be00480007000470a70019
:1008900003f0a1006509b100160032000d0035001b
:1008a0006828e10006003500f0ff2f00f1ff270067
:1008b0000300e00013003b000100280000000500d9
:1008c00000004000818048008502e900fcff3a00fa
:1008d00008003700f88f420002003c008000eb0067
:1008e000000005008100d1000080d3008502e800ef
:1008f000fcff3a000300e00002003b006000100033
:10090000e0801800000006004f89de0082017800b8
:100910008a00370081002000618055000b003d00f7
:100920000b00200061fe2f000100e1001d003400db
:1009300082817100610164008904d1000884d300c0
:100940000000e800faff3a00710020006100640036
:1009500003007000020060000900320061044400de
:10096000e0844c000988a500050032008b05e800f2
:100970006808e10002003a008904d1000884d3002d
:10098000f20f20000258e10005003d00c75ddd00c8
:10099000f907b200898075000800780000000600a1
:1009a0000bf827008b00780000000500c70ade0066
:1009b000f107b200f50fb20008003200e1cf4200ab
:1009c000020032000170a00024000500810f7000b9
:1009d000010032000408050044000500810f70008a
:1009e00002003a00140005008502e9000000400002
:1009f00081c04800fcff3b000170a00024000500fe
:100a00000004be00e9ff07000003be000405be00ad
:100a10000200be00e5ff0700844f750000000600dd
:100a20000200be006450e100050036006420e100d1
:100a3000020036000968a30001003a000800be0069
:100a40000160a0004f0678004f05be004f04be00b5
:100a500000000600f0ff2f00f1ff2700f9ff37002c
:100a6000889fbe008a9fbe008c1f7800e4ff0700ad
:100a7000ebff330003866c006450e1002400320079
:100a80006420e100270032006150e10022003200c2
:100a90006120e100210032008b854200eb07b100ac
:100aa0000134b800003ab8000804420089844a00c2
:100ab000013ab8000030b8008880400009014a00bf
:100ac000040033000000400081804800020149001a
:100ad0008b05e900c909dd008301700001003200c7
:100ae00013002000c814de004814dd004709de00b2
:100af0001200b200c808de000884700085ff0700fd
:100b000001f0a1000cf0a70001f0a000cdff37001c
:100b10006120e100cfff32000801be000200be00ec
:100b2000f7ff37006150e100fcff3a00c9ff3700d2
:100b3000410007000400be0000000600881f780086
:100b4000030478000300e00007003d00600010008f
:100b5000e080180060011900e081190002003b00ec
:100b600001f02d00030037000400070008f0a70083
:100b700001f0a0004f04780000000600889fbe002e
:100b80008a9fbe000082700004027100048271001e
:100b9000260032000004be000200be006011b80052
:100ba0006b092000950220000182cf000a00390065
:100bb0000541b1000082cf00070039000541b100b6
:100bc0000982cf00040039000541b1000882cf003e
:100bd000010039000541b100054252001200320007
:100be0000a003b0082817100610164008100d10034
:100bf0000080d3008984d3000884d3008b05e800eb
:100c00000442e800f7ff3a000700370008044400f8
:100c100089844c0000004800818048008b05e90071
:100c20000442e900f9ff3a003aff07004f05be0011
:100c30004f04be00000006006022b800060220003b
:100c40000000d0008180d2000482d2008582d200d0
:100c50000000a0000202520083825a00030031000b
:100c60000202420083824a000000a1000603e9005c
:080c7000f3ff3a00000006004a
:020000040000fa
:100c78000000fa0040032000a01088000de2a9003f
:100c88000da2a8000d42a9000ca2a90061108000c5
:100c980090ff2f0000806000601088000c02a900ff
:100ca8000fe2a9008540a9008d40a900c104800079
:100cb800f08f2f00008060000080a000c004880032
:100cc8000de2a8000f42a8000080fa00000006000c
:100cd8000200fa00000f78006010800066006000d3
:100ce800e60f500003003a001e00780080108800cc
:100cf800040037009e007800f00f2000008060009c
:100d0800801088000080fa00000006000000fa0049
:100d180071108000001020000080600000f0a70023
:100d28000000ea000000e9004f00de000040780003
:100d38000080fa00000006000000fa000de2a90099
:100d48008d20a9008d40a9008520a9008540a90013
:100d58000080fa00000006001600fa00200f980034
:100d680009000900001feb004e01b100000000005f
:100d7800e6ff07000004e000fdff3a002e0890009f
:100d88000000e00009003d00d0022000d0ff07006d
:100d980000000000ddff07000004e000fdff3a004e
:100da8002e0890000000ea00200f9800ae0890007e
:100db800a000200000017800110009008200d8007e
:100dc8008000fd00cf80de00cdfe0700008fbe0052
:100dd8002e099000706626000090b900c288de00d7
:100de8004f90de0000805000200f9800ae08900061
:100df800706626000089b9004299de004f88de003f
:100e0800000051006a01b90002007800008050001b
:100e1800cf80de00bafe070020079800310798004f
:100e28002e099000706626000090b900c288de0086
:100e38004f90de0000805000200f9800ae08900010
:100e4800706626000089b9004299de004f88de00ee
:100e5800000051006a01b9000200780000805000cb
:100e6800cf80de00a6fe07004007980051079800d3
:100e78002e099000706626000090b900c288de0036
:100e88004f90de0000805000200f9800ae089000c0
:100e9800706626000089b9004299de004f88de009e
:100ea800000051006a01b90002007800008050007b
:100eb800cf80de0092fe0700600798007107980057
:100ec8002e099000706626000090b900c288de00e6
:100ed8004f90de0000805000200f9800ae08900070
:100ee800706626000089b9004299de004f88de004e
:100ef800000051006a01b90002007800008050002b
:100f0800cf80de007efe0700000f9800110f9800ca
:100f1800000000007dff07000004e000fdff3a002c
:100f28000e0890009e089000020020000324240070
:100f3800b3fd070051fe07000000780064ff0700ba
:100f48000000000071ff07000004e000fdff3a0008
:100f58006e009000fe009000020020000324240090
:100f6800a7fd070045fe07000000780058ff0700ae
:100f78000000000065ff07000004e000fdff3a00e4
:100f88004e009000de0090000200200003242400a0
:100f98009bfd070039fe0700000078004cff0700a2
:100fa8000000000059ff07000004e000fdff3a00c0
:100fb8002e009000be0090000200200003242400b0
:100fc8008ffd07002dfe07000000780040ff070096
:100fd800000000004dff07000004e000fdff3a009c
:100fe8001e00be00020020000324240084fd070028
:100ff80022fe07000000780035ff0700000000000f
:1010080042ff07000004e000fdff3a000080fa00fc
:10101800000006000000fa00000000003bff070087
:101028000004e000fdff3a00d000200028ff070080
:101038000000000035ff07000004e000fdff3a0053
:10104800a000200022ff0700000000002fff07007b
:101058000004e000fdff3a000080fa0000000600ee
:101068000000fa001c020700d90107002801070048
:1010780080010700fefe07000080fa00000006005d
:101088000400fa00100798009e009000010f7800f5
:101098001e007800f20f4000090035001e0078009d
:1010a800f20f500006003c009e007800c07120003e
:1010b8000088b90000007800004088000800370068
:1010c8001e007800f10f50000300340000002800d3
:1010d8000040880002003700000028000040880017
:1010e8000080fa00000006000200fa00000f7800f5
:1010f800602d2f009e007800808f50001100350071
:10110800a0d220009e007800808f50000d003c0087
:101118001e007800cf80de00f9fd070002002a00db
:101128002355240093fd07000200200003602400db
:1011380049fe0700d1fd07000000780080408800c4
:101148000900370090d220009e007800808f500060
:1011580003003400000022008040880002003700ad
:1011680000002e00804088000080fa000000060081
:101178000e00fa00889fbe008a9fbe008c9fbe00aa
:10118800300798000000eb00000f78000000eb002b
:10119800100798000000eb00200798003e00900020
:1011a8000000e00035003a0021408000010f78007f
:1011b80001408000104080000080500020408800de
:1011c800204080001e00500010079800404080001a
:1011d8006101b9001e009000cf80de00009ab900be
:1011e80004027800028bb900560798006707980038
:1011f800de029000050242000010b8000102420021
:10120800840078004109dd004f03de000603710009
:10121800cf8bde00860078004107980050408000a0
:101228006101b90020408000cf80de00009ab9003b
:1012380004027800028bb900860278000502420099
:101248000010b80001024200840078004109dd0066
:101258004f06de000c067100cf8ede000c00780011
:101268004e039000000043002007980031408000a2
:101278002e00900000804000304088003e00900022
:10128800e10f50003d003a00a7408000070f7800aa
:10129800814080009040800000805000a04088007d
:1012a800a04080001e00100010079800c040800079
:1012b8006101b9001e009000cf80de00009ab900dd
:1012c80004027800028bb900860278000502420009
:1012d8000010b80001024200840078004309dd00d4
:1012e8004d05de000a057100cd8dde000a05780087
:1012f800d04080006101b900a0408000cf80de00ae
:10130800009ab90004027800028bb90086027800be
:10131800050242000010b800010242008400780073
:10132800430bdd004d04de0008047300cd8cde00a5
:10133800080078000000450020079800b1408000b0
:101348002e00900000804000b0408800b14080002e
:1013580000002200808f50000200340000002200ac
:10136800b0408800b140800000002e00808f5000ff
:1013780002003d0000002e00b04088004f06be006d
:101388004f05be004f04be000080fa0000000600b2
:101398000600fa0010079800210798000000eb00eb
:1013a800000f78002e0090000000e00003003a00d3
:1013b8001e0090004500dd00000f78002e00900010
:1013c800e10f500003003a001e0090004300dd00ca
:1013d800000f78001e0078000080fa000000060068
:1013e8000600fa00000f780011079800424798009d
:1013f8004e409000614060006140600061406000c4
:101408000080fb0061006000510e80000100a10017
:1014180001007000500e88001e00e9000000400026
:1014280080007800601d2000008040009e00900031
:1014380001087800ca01a9000080fa00000006002f
:101448000200fa00000f7800c1e1a9009e007800b0
:10145800210e8800c1a1a800010e8000f0f02f0025
:1014680000806000000e8800010e800030ff2f0011
:1014780000806000000e8800010e8000c0ff2f0071
:10148800008060000010a000000e8800c901a900bb
:10149800c921a900c881a800c801a800c8a1a8003e
:1014a800c821a800510e8000f00f2f0000806000b6
:1014b8000080a000500e8800ca21a800ca01a90017
:1014c800610e800000fc2f0000806000600e880024
:1014d800d521a800d501a800d561a800d541a8004c
:1014e80088e0a900c7e1a80031058000f0ff2800c6
:1014f8008080600000002500010070003005880031
:1015080090e0a800c1e1a8000080fa0000000600f1
:101518000000fa00b04280000041eb008000780033
:1015280010002000aeff0700b04280000041eb0031
:101538008000780020002000a9ff0700202e20004e
:10154800bfff07000080fa00000006000000fa0054
:10155800a1e2a900a1a2a80001158000f0cf2f00e8
:10156800008060000015880001158000f0f12f0050
:1015780080806000000620000100700000158800cf
:10158800a062a800a042a80011158000f0ff210069
:1015980000806000101588001115800000302000c0
:1015a8000100700010158800a222a80021158000f3
:1015b800f00f2e00008060000080a0002015880039
:1015c800a4e2a9002115800000fc2f000080600023
:1015d8000010a0002015880031158000f0f32f00be
:1015e8000080600030158800a6a2a900a682a90084
:1015f8003115800000ff2f0000806000d000b3008c
:1016080030158800a802a900a822a900a842a900ac
:10161800a862a9008d60a900a1e2a8000080fa00d4
:10162800000006000200fa00004f78001e80fb0050
:101638000000400080007800002820000080400062
:10164800100078000080fa00000006000000fa0090
:10165800001580006100600000f0a7000000ea00ab
:101668000000e9004f00de00004078000080fa002a
:10167800000006000000fa00b4ff07000080fa002e
:10168800000006000000fa00140007001900070017
:10169800feff37000800fa0020079800310798007d
:1016a8002242800033428000028fbe00000000000a
:1016b80020428000314280003e015000ae81580037
:1016c8002e009000be009000800f5100818f5900bd
:1016d800f7ff39000080fa00000006000000fa0059
:1016e80010002000604288005dfe07000080fa00bc
:1016f800000006000000fa00200020006042880078
:101708001000200094fd070042fe07000040800002
:1017180091fd07003ffe0700104080008efd070086
:101728003cfe0700304080008bfd070039fe0700b3
:101738000080fa00000006000000fa000421a90059
:1017480021088000000320000100700020088800a4
:1017580080c1230010088800a1048000f0ff280041
:101768000080600000d0a000a00488008460a90068
:101778008c60a8000000000005e1a8000080fa00c5
:10178800000006000000fa001021a900810880006e
:1017980000032000010070008008880040c020007d
:1017a80060088800b1048000f08f2f00008060007e
:1017b8000090a000b004880084c0a9008cc0a800d4
:1017c8000000000011e1a8000080fa0000000600f7
:1017d8000000fa00d8ff0700eaff07000080fa00bf
:0417e80000000600f7
:020000040000fa
:1017ec00400800001000000000000000500800003d
:1017fc00060000000000000000080000400000008f
:10180c000200000000000000000000000000430087
:10181c0000080000008000008000000000000000b4
:10182c00000000003d2acd000c00200000e000006c
:10183c0000403f005b9459003b892900913b3300e9
:10184c0033333f000ad7a3003c6101002a0d580036
:10185c000204010011000000000000005608000006
:10186c000200000002000000e20200000000000084
:020000040000fa
:10187c000000fa00de02a900de22a900de42a90067
:10188c00de62a900de82a900dea2a9000080fa00b7
:10189c00000006000000fa00d802a900d822a90016
:1018ac00d842a900d862a900d882a900d8a2a90060
:1018bc000080fa00000006000000fa00c602a80032
:1018cc00c622a800c642a800c662a8000080fa0082
:1018dc00000006000000fa00e5ff0700edff07001e
:0c18ec00f5ff07000080fa000000060075
:020000040000fa
:0200000401f009
:04000000f5bf000048
:020000040000fa
:0200000401f009
:04000400ff7f00007a
:020000040000fa
:0200000401f009
:04000800fffb0000fa
:020000040000fa
:0200000401f009
:04001400ffff0000ea
:020000040000fa
:0200000401f009
:04001800ffff0000e6
:00000001FF
