:020000040000fa
:080000000001040000000000f3
:020000040000fa
:04000800f002000002
:020000040000fa
:04000c00c00200002e
:020000040000fa
:04001000c602000024
:020000040000fa
:04001400cc0200001a
:020000040000fa
:04001800d202000010
:020000040000fa
:04001c00f0020000ee
:020000040000fa
:04002000f0020000ea
:020000040000fa
:04002400f0020000e6
:020000040000fa
:04002800f0020000e2
:020000040000fa
:04002c00f0020000de
:020000040000fa
:04003000f0020000da
:020000040000fa
:04003400c8010000ff
:020000040000fa
:04003800f0020000d2
:020000040000fa
:04003c00f0020000ce
:020000040000fa
:04004000dc010000df
:020000040000fa
:04004400f0020000c6
:020000040000fa
:04004800f0020000c2
:020000040000fa
:04004c00f0020000be
:020000040000fa
:04005000ba020000f0
:020000040000fa
:04005400f0020000b6
:020000040000fa
:04005800f0020000b2
:020000040000fa
:04005c00f0020000ae
:020000040000fa
:04006000f0020000aa
:020000040000fa
:04006400f0020000a6
:020000040000fa
:04006800f0020000a2
:020000040000fa
:04006c00f00200009e
:020000040000fa
:04007000f00200009a
:020000040000fa
:04007400f002000096
:020000040000fa
:04007800f002000092
:020000040000fa
:04007c00f00200008e
:020000040000fa
:04008000f00200008a
:020000040000fa
:04008400f002000086
:020000040000fa
:04008800f002000082
:020000040000fa
:04008c00f00200007e
:020000040000fa
:04009000f00200007a
:020000040000fa
:04009400f002000076
:020000040000fa
:04009800f002000072
:020000040000fa
:04009c00f00200006e
:020000040000fa
:0400a000f00200006a
:020000040000fa
:0400a400f002000066
:020000040000fa
:0400a800f002000062
:020000040000fa
:0400ac00f00200005e
:020000040000fa
:0400b000f00200005a
:020000040000fa
:0400b400f002000056
:020000040000fa
:0400b800f002000052
:020000040000fa
:0400bc00f00200004e
:020000040000fa
:0400c000f00200004a
:020000040000fa
:0400c4000602000030
:020000040000fa
:0400c800f002000042
:020000040000fa
:0400cc00f00200003e
:020000040000fa
:0400d000f00200003a
:020000040000fa
:0400d400f002000036
:020000040000fa
:0400d800f002000032
:020000040000fa
:04010800f002000001
:020000040000fa
:04010c00d802000015
:020000040000fa
:04011000de0200000b
:020000040000fa
:04011400e402000001
:020000040000fa
:04011800ea020000f7
:020000040000fa
:04011c00f0020000ed
:020000040000fa
:04012000f0020000e9
:020000040000fa
:04012400f0020000e5
:020000040000fa
:04012800f0020000e1
:020000040000fa
:04012c00f0020000dd
:020000040000fa
:04013000f0020000d9
:020000040000fa
:04013400c8010000fe
:020000040000fa
:04013800f0020000d1
:020000040000fa
:04013c00f0020000cd
:020000040000fa
:04014000dc010000de
:020000040000fa
:04014400f0020000c5
:020000040000fa
:04014800f0020000c1
:020000040000fa
:04014c00f0020000bd
:020000040000fa
:04015000ba020000ef
:020000040000fa
:04015400f0020000b5
:020000040000fa
:04015800f0020000b1
:020000040000fa
:04015c00f0020000ad
:020000040000fa
:04016000f0020000a9
:020000040000fa
:04016400f0020000a5
:020000040000fa
:04016800f0020000a1
:020000040000fa
:04016c00f00200009d
:020000040000fa
:04017000f002000099
:020000040000fa
:04017400f002000095
:020000040000fa
:04017800f002000091
:020000040000fa
:04017c00f00200008d
:020000040000fa
:04018000f002000089
:020000040000fa
:04018400f002000085
:020000040000fa
:04018800f002000081
:020000040000fa
:04018c00f00200007d
:020000040000fa
:04019000f002000079
:020000040000fa
:04019400f002000075
:020000040000fa
:04019800f002000071
:020000040000fa
:04019c00f00200006d
:020000040000fa
:0401a000f002000069
:020000040000fa
:0401a400f002000065
:020000040000fa
:0401a800f002000061
:020000040000fa
:0401ac00f00200005d
:020000040000fa
:0401b000f002000059
:020000040000fa
:0401b400f002000055
:020000040000fa
:0401b800f002000051
:020000040000fa
:0401bc00f00200004d
:020000040000fa
:0401c000f002000049
:020000040000fa
:0401c400060200002f
:020000040000fa
:0401c800f002000041
:020000040000fa
:0401cc00f00200003d
:020000040000fa
:0401d000f002000039
:020000040000fa
:0401d400f002000035
:020000040000fa
:0401d800f002000031
:020000040000fa
:100200006f8520000eff20000e0188000000000016
:10021000000020000000e000020032000001200089
:100220002002880014000700ef0007000000e00033
:1002300003003a00408a200001002000020037003d
:100240000000200001002000810f7000010032003a
:1002500014000700000020000000e000020032004f
:100260000000020000000000c407020000000000bf
:100270000040da000000fe004440a9000000200019
:100280000000e0000300320000002000a001880010
:100290004440a800000006008a1f78008b1f7800e9
:1002a0000000060091018800800478000000eb0047
:1002b0001a003700e284440032a0b4009905ba0065
:1002c000e284440032a0b4009906ba00e2844400fb
:1002d00032a0b4000006eb00476fde00fd07b2005d
:1002e000636ce10003003a00ebff07000000eb0045
:1002f0000a003700606ce10004003a00005deb008a
:100300008b05e900fdff3e00040037006168e10055
:10031000010032000086eb000b00070019c7ba008d
:100320001905ba000e04e00003003a000a00e000dc
:10033000e0ff3a0000000600fe07b2009e018800c0
:100340008a047800f5ff3700395dba008b05e900b3
:100350000c003200295dba008b05e900080032006c
:100360000c00e00003003a00e284440032a0b40034
:10037000f5ff370019ddba008b05e900faff3a00f6
:100380008904e800e184440032a0b40000000600c3
:1003900000a0fe000000fa0060428000e10f500063
:1003a00001003a00e202a8008460a9000080fa007f
:1003b0000080fe000040060000a0fe000000fa00e1
:1003c00060428000e20f50000c003a0010178000dd
:1003d0000000d100614060000004a20061406000a4
:1003e0000080fb00610060000000400011178000e9
:1003f0000110a100010070001017880084c0a9003e
:100400000080fa000080fe000040060000a0fe0010
:100410003600f800849fbe00869fbe00889fbe0005
:100420000400fa0000428000114280006100400098
:10043000e0804800004288001142880000428000ad
:1004400011428000420120000300200067000700e5
:10045000e00f5000e08f580007003a002042800073
:100460003142800061004000e08048002042880066
:10047000314288000100370000000000b40207008c
:100480000004e000fdff3a0010c0b300a602070020
:10049000504288005042800011002000fd010700fa
:1004a000904088005069200059010700100020008a
:1004b00070010700b040800000408800000000008c
:1004c000a30207000004e000fdff3a0010c0b300e3
:1004d0009502070040428800404280008000eb0007
:1004e000ec01070010408800900020003001070058
:1004f0000000eb005f01070030408000cf80de008d
:10050000222e20000289b900020178006002b900a1
:100510008401780003014100232e20000300b8006d
:100520000101410082007800008fbe00008fbe00f4
:100530001e00be00408cde00cf8cde00080078007c
:100540001017b00000004000b00e8800b00e800010
:10055000c00e880088e0a9000080fa004f04be00a9
:100560004f03be004f02be003600f9000080fe00bf
:10057000004006000000fa000080fa00004006007b
:100580000000fa008020a900ffff37000000fa00f9
:100590008060a900ffff37000000fa008040a9003a
:1005a000ffff37000000fa008080a900ffff37003e
:1005b0000000fa008020a900ffff37000000fa00c9
:1005c0008060a900ffff37000000fa008040a9000a
:1005d000ffff37000000fa008080a900ffff37000e
:1005e0000000fa00ffff37000000050002000700ce
:1005f0000400be00000006006022b80006022000d1
:100600000000d0008180d2000482d2008582d20016
:100610000000a0000202520083825a000300310051
:100620000202420083824a000000a1000603e900a2
:08063000f3ff3a000000060090
:020000040000fa
:100638000000fa0040032000a01088000de2a90085
:100648000da2a8000d42a9000ca2a900611080000b
:1006580090ff2f0000806000601088000c02a90045
:100668000fe2a9008540a9008d40a900c1048000bf
:10067800f08f2f00008060000080a000c004880078
:100688000de2a8000f42a8000080fa000000060052
:100698000200fa00000f7800601080006600600019
:1006a800e60f500003003a001e0078008010880012
:1006b800040037009e007800f00f200000806000e2
:1006c800801088000080fa00000006000000fa0090
:1006d80071108000001020000080600000f0a7006a
:1006e8000000ea000000e9004f00de00004078004a
:1006f8000080fa00000006000000fa000de2a900e0
:100708008d20a9008d40a9008520a9008540a90059
:100718000080fa00000006000c00fa00500798005c
:1007280004000900001feb00ae00b100000000004b
:10073800e6ff07000004e000fdff3a005e009000bd
:100748000000e00009003d00d0022000d0ff0700b3
:1007580000000000ddff07000004e000fdff3a0094
:100768005e0090000000ea0050079800de0090004c
:10077800a000200000017800110009008200d800c4
:100788008000fd00000f78005e0190007066260072
:100798000090b900c288de004f90de000080500053
:1007a80050079800de009000706626000089b900a6
:1007b8004299de004f88de00000051006a01b9004e
:1007c8000200780000805000100798005e01900039
:1007d800706626000090b900c288de004f90de00e7
:1007e8000080500050079800de00900070662600d8
:1007f8000089b9004299de004f88de0000005100f0
:100808006a01b900020078000080500020079800b3
:100818005e019000706626000090b900c288de0074
:100828004f90de000080500050079800de009000d6
:10083800706626000089b9004299de004f88de0004
:10084800000051006a01b9000200780000805000e1
:10085800300798005e019000706626000090b9008d
:10086800c288de004f90de000080500050079800dc
:10087800de009000706626000089b9004299de000b
:100888004f88de00000051006a01b90002007800bc
:100898000080500040079800000000008bff070010
:1008a8000004e000fdff3a004e0090000003b00095
:1008b80077ff07000000000084ff07000004e00045
:1008c800fdff3a003e0090000003b00070ff0700f3
:1008d800000000007dff07000004e000fdff3a0073
:1008e8002e0090000003b00069ff07000000000020
:1008f80076ff07000004e000fdff3a001e009000ac
:100908000003b00062ff0700000000006fff07004f
:100918000004e000fdff3a001e0078000003b0006c
:100928005bff07000000000068ff07000004e0000c
:10093800fdff3a000080fa00000006000000fa00ff
:100948000000000061ff07000004e000fdff3a001e
:10095800d00020004eff0700000000005bff0700ea
:100968000004e000fdff3a00a000200048ff070057
:100978000000000055ff07000004e000fdff3a00fa
:100988000080fa00000006000000fa0029020700b3
:10099800e60107001d0107007501070024ff070095
:1009a8000080fa00000006000200fa00000f78003c
:1009b8001e007800f20f4000090035001e00780084
:1009c800f20f500006003c009e007800c071200025
:1009d8000088b9000000780000408800080037004f
:1009e8001e007800f10f50000300340000002800ba
:1009f80000408800020037000000280000408800fe
:100a08000080fa00000006000200fa00000f7800db
:100a1800602d2f009e007800808f50000800350060
:100a2800a0d220009e007800808f500004003c0077
:100a38001e00780000004000804088000900370050
:100a480090d220009e007800808f50000300340070
:100a580000002200804088000200370000002e00bd
:100a6800804088000080fa00000006000e00fa00ae
:100a7800889fbe008a9fbe008c9fbe0030079800ea
:100a88000000eb00000f78000000eb001007980052
:100a98000000eb00200798003e0090000000e000f6
:100aa80035003a0021408000010f780001408000a5
:100ab80010408000008050002040880020408000c6
:100ac8001e00500010079800404080006101b900e6
:100ad8001e009000cf80de00009ab9000402780062
:100ae800028bb9005607980067079800de0290004d
:100af800050242000010b80001024200840078009c
:100b08004109dd004f03de0006037100cf8bde00d4
:100b18008600780041079800504080006101b900c4
:100b280020408000cf80de00009ab90004027800df
:100b3800028bb90086027800050242000010b80056
:100b480001024200840078004109dd004f06de0002
:100b58000c067100cf8ede000c0078004e0390006a
:100b68000000430020079800314080002e009000cc
:100b780000804000304088003e009000e10f5000a7
:100b88003d003a00a7408000070f780081408000b0
:100b98009040800000805000a0408800a040800065
:100ba8001e00100010079800c04080006101b900c5
:100bb8001e009000cf80de00009ab9000402780081
:100bc800028bb90086027800050242000010b800c6
:100bd80001024200840078004309dd004d05de0073
:100be8000a057100cd8dde000a057800d04080002e
:100bf8006101b900a0408000cf80de00009ab900f2
:100c080004027800028bb9008602780005024200cf
:100c18000010b8000102420084007800430bdd0098
:100c28004d04de0008047300cd8cde000800780057
:100c38000000450020079800b14080002e00900079
:100c480000804000b0408800b140800000002200d1
:100c5800808f50000200340000002200b04088005d
:100c6800b140800000002e00808f500002003d003f
:100c780000002e00b04088004f06be004f05be00a1
:100c88004f04be000080fa00000006000600fa00cb
:100c980010079800210798000000eb00000f78006b
:100ca8002e0090000000e00003003a001e009000b3
:100cb8004500dd00000f78002e009000e10f500085
:100cc80003003a001e0090004300dd00000f78008a
:100cd8001e0078000080fa00000006000600fa00f6
:100ce800000f780011079800424798004e40900086
:100cf8006140600061406000614060000080fb006e
:100d080061006000510e80000100a1000100700028
:100d1800500e88001e00e9000000400080007800a6
:100d2800601d2000008040009e00900001087800af
:100d3800ca01a9000080fa00000006000200fa00bb
:100d4800000f7800c1e1a9009e007800210e8800fc
:100d5800c1a1a800010e8000f0f02f000080600003
:100d6800000e8800010e800030ff2f000080600018
:100d7800000e8800010e8000c0ff2f000080600078
:100d88000010a000000e8800c901a900c921a9000f
:100d9800c881a800c801a800c8a1a800c821a80047
:100da800510e8000f00f2f00008060000080a0002e
:100db800500e8800ca21a800ca01a900610e80004f
:100dc80000fc2f0000806000600e8800d521a8007c
:100dd800d501a800d561a800d541a80088e0a900e0
:100de800c7e1a80031058000f0ff2800808060007e
:100df80000002500010070003005880090e0a80080
:100e0800c1e1a8000080fa00000006000000fa0016
:100e1800a04280000041eb00800078001000200014
:100e2800aeff0700a04280000041eb008000780080
:100e380020002000a9ff0700202e2000bfff070088
:100e48000080fa00000006000000fa00a1e2a900f4
:100e5800a1a2a80001158000f0cf2f00008060003b
:100e68000015880001158000f0f12f0080806000d7
:100e7800000620000100700000158800a062a8008c
:100e8800a042a80011158000f0ff2100008060003a
:100e98001015880011158000003020000100700036
:100ea80010158800a222a80021158000f00f2e003e
:100eb800008060000080a00020158800a4e2a9003e
:100ec8002115800000fc2f00008060000010a000a9
:100ed8002015880031158000f0f32f000080600095
:100ee80030158800a6a2a900a682a90031158000a5
:100ef80000ff2f0000806000d000b300301588008c
:100f0800a802a900a822a900a842a900a862a900cd
:100f18008d60a900a1e2a8000080fa000000060088
:100f28000200fa00004f78001e80fb00000040001d
:100f38008000780000282000008040001000780021
:100f48000080fa00000006000000fa00001580008a
:100f58006100600000f0a7000000ea000000e9005e
:100f68004f00de00004078000080fa000000060014
:100f78000000fa00b4ff07000080fa000000060035
:100f88000000fa0017000700803e20000100200042
:100f98000200070019000700feff37000800fa00ea
:100fa80020079800310798002242800033428000d1
:100fb800028fbe0000000000204280003142800005
:100fc8003e015000ae8158002e009000be009000f7
:100fd800800f5100818f5900f7ff39000080fa0017
:100fe800000006000000fa0010002000604288009f
:100ff80065fe07000080fa00000006000000fa0005
:10100800200020006042880010002000c2fd070078
:101018004afe070000408000bffd070047fe0700aa
:1010280010408000bcfd070044fe070030408000ef
:10103800b9fd070041fe0700803e200001002000a6
:10104800d6ff070020002000b3fd07003bfe070085
:1010580080408000b0fd070038fe07009040800007
:10106800adfd070035fe0700b0408000aafd07006f
:1010780032fe0700b00e8000a7fd07002ffe070014
:10108800803e200001002000c4ff07000080fa0015
:10109800000006000000fa000421a90021088000d1
:1010a80000032000010070002008880080c1230090
:1010b80010088800a1048000f0ff2800008060006c
:1010c80000d0a000a00488008460a9008c60a8005b
:1010d8000000000005e1a8000080fa0000000600fa
:1010e8000000fa001021a9008108800000032000f8
:1010f800010070008008880040c020006008880057
:10110800b1048000f08f2f00008060000090a000e4
:10111800b004880084c0a9008cc0a80000000000aa
:1011280011e1a8000080fa00000006000000fa00a3
:10113800d8ff0700eaff07000080fa000000060059
:020000040000fa
:10114800400800000e000000000000004e080000eb
:101158000600000000000000000800004000000039
:101168000200000000000000000000000000430032
:10117800000800000080000080000000000000005f
:10118800000000003d2acd000c00200000e0000017
:1011980000403f005b9459003b892900913b330094
:1011a80033333f000ad7a3003c6101002a0d5800e1
:1011b80002040100110000000000000054080000b3
:1011c8000200000002000000e2020000000000002f
:020000040000fa
:1011d8000000fa00de02a900de22a900de42a90012
:1011e800de62a900de82a900dea2a9000080fa0062
:1011f800000006000000fa00d802a900d822a900c1
:10120800d842a900d862a900d882a900d8a2a9000a
:101218000080fa00000006000000fa00c602a800dc
:10122800c622a800c642a800c662a8000080fa002c
:10123800000006000000fa00e5ff0700edff0700c8
:0c124800f5ff07000080fa00000006001f
:020000040000fa
:0200000401f009
:04000000f5bf000048
:020000040000fa
:0200000401f009
:04000400ff7f00007a
:020000040000fa
:0200000401f009
:04000800fffb0000fa
:020000040000fa
:0200000401f009
:04001400ffff0000ea
:020000040000fa
:0200000401f009
:04001800ffff0000e6
:00000001FF
