:020000040000fa
:080000000001040000000000f3
:020000040000fa
:040008007c02000076
:020000040000fa
:04000c004c020000a2
:020000040000fa
:040010005202000098
:020000040000fa
:04001400580200008e
:020000040000fa
:040018005e02000084
:020000040000fa
:04001c007c02000062
:020000040000fa
:040020007c0200005e
:020000040000fa
:040024007c0200005a
:020000040000fa
:040028007c02000056
:020000040000fa
:04002c007c02000052
:020000040000fa
:040030007c0200004e
:020000040000fa
:04003400c8010000ff
:020000040000fa
:040038007c02000046
:020000040000fa
:04003c007c02000042
:020000040000fa
:04004000ea010000d1
:020000040000fa
:040044007c0200003a
:020000040000fa
:040048007c02000036
:020000040000fa
:04004c007c02000032
:020000040000fa
:040050004602000064
:020000040000fa
:040054007c0200002a
:020000040000fa
:040058007c02000026
:020000040000fa
:04005c007c02000022
:020000040000fa
:040060007c0200001e
:020000040000fa
:040064007c0200001a
:020000040000fa
:040068007c02000016
:020000040000fa
:04006c007c02000012
:020000040000fa
:040070007c0200000e
:020000040000fa
:040074007c0200000a
:020000040000fa
:040078007c02000006
:020000040000fa
:04007c007c02000002
:020000040000fa
:040080007c020000fe
:020000040000fa
:040084007c020000fa
:020000040000fa
:040088007c020000f6
:020000040000fa
:04008c007c020000f2
:020000040000fa
:040090007c020000ee
:020000040000fa
:040094007c020000ea
:020000040000fa
:040098007c020000e6
:020000040000fa
:04009c007c020000e2
:020000040000fa
:0400a0007c020000de
:020000040000fa
:0400a4007c020000da
:020000040000fa
:0400a8007c020000d6
:020000040000fa
:0400ac007c020000d2
:020000040000fa
:0400b0007c020000ce
:020000040000fa
:0400b4007c020000ca
:020000040000fa
:0400b8007c020000c6
:020000040000fa
:0400bc007c020000c2
:020000040000fa
:0400c0007c020000be
:020000040000fa
:0400c4000e02000028
:020000040000fa
:0400c8007c020000b6
:020000040000fa
:0400cc007c020000b2
:020000040000fa
:0400d0007c020000ae
:020000040000fa
:0400d4007c020000aa
:020000040000fa
:0400d8007c020000a6
:020000040000fa
:040108007c02000075
:020000040000fa
:04010c006402000089
:020000040000fa
:040110006a0200007f
:020000040000fa
:040114007002000075
:020000040000fa
:04011800760200006b
:020000040000fa
:04011c007c02000061
:020000040000fa
:040120007c0200005d
:020000040000fa
:040124007c02000059
:020000040000fa
:040128007c02000055
:020000040000fa
:04012c007c02000051
:020000040000fa
:040130007c0200004d
:020000040000fa
:04013400c8010000fe
:020000040000fa
:040138007c02000045
:020000040000fa
:04013c007c02000041
:020000040000fa
:04014000ea010000d0
:020000040000fa
:040144007c02000039
:020000040000fa
:040148007c02000035
:020000040000fa
:04014c007c02000031
:020000040000fa
:040150004602000063
:020000040000fa
:040154007c02000029
:020000040000fa
:040158007c02000025
:020000040000fa
:04015c007c02000021
:020000040000fa
:040160007c0200001d
:020000040000fa
:040164007c02000019
:020000040000fa
:040168007c02000015
:020000040000fa
:04016c007c02000011
:020000040000fa
:040170007c0200000d
:020000040000fa
:040174007c02000009
:020000040000fa
:040178007c02000005
:020000040000fa
:04017c007c02000001
:020000040000fa
:040180007c020000fd
:020000040000fa
:040184007c020000f9
:020000040000fa
:040188007c020000f5
:020000040000fa
:04018c007c020000f1
:020000040000fa
:040190007c020000ed
:020000040000fa
:040194007c020000e9
:020000040000fa
:040198007c020000e5
:020000040000fa
:04019c007c020000e1
:020000040000fa
:0401a0007c020000dd
:020000040000fa
:0401a4007c020000d9
:020000040000fa
:0401a8007c020000d5
:020000040000fa
:0401ac007c020000d1
:020000040000fa
:0401b0007c020000cd
:020000040000fa
:0401b4007c020000c9
:020000040000fa
:0401b8007c020000c5
:020000040000fa
:0401bc007c020000c1
:020000040000fa
:0401c0007c020000bd
:020000040000fa
:0401c4000e02000027
:020000040000fa
:0401c8007c020000b5
:020000040000fa
:0401cc007c020000b1
:020000040000fa
:0401d0007c020000ad
:020000040000fa
:0401d4007c020000a9
:020000040000fa
:0401d8007c020000a5
:020000040000fa
:10020000af8420000eff20000e01880000000000d7
:10021000000020000000e000020032000001200089
:100220002002880014000700b50007000000e0006d
:1002300003003a00a0c020000100200002003700a7
:100240000000200001002000810f7000010032003a
:1002500014000700000020000000e000020032004f
:1002600000000200000000008a05020000000000fb
:100270000040da000000fe004440a9000000200019
:100280000000e0000300320000002000a001880010
:100290004440a800000006008a1f78008b1f7800e9
:1002a0000000060091018800800478000000eb0047
:1002b0001a003700e284440032a0b4009905ba0065
:1002c000e284440032a0b4009906ba00e2844400fb
:1002d00032a0b4000006eb00476fde00fd07b2005d
:1002e000636ce10003003a00ebff07000000eb0045
:1002f0000a003700606ce10004003a00005deb008a
:100300008b05e900fdff3e00040037006168e10055
:10031000010032000086eb000b00070019c7ba008d
:100320001905ba000e04e00003003a000a00e000dc
:10033000e0ff3a0000000600fe07b2009e018800c0
:100340008a047800f5ff3700395dba008b05e900b3
:100350000c003200295dba008b05e900080032006c
:100360000c00e00003003a00e284440032a0b40034
:10037000f5ff370019ddba008b05e900faff3a00f6
:100380008904e800e184440032a0b40000000600c3
:1003900000a0fe000000fa00101780000040780066
:1003a000614060000004a200614060000080fb002a
:1003b00061006000111780000100a10001007000c1
:1003c000101788008460a9000080fa000080fe00f9
:1003d0000040060000a0fe000000fa001017800098
:1003e0000000d100614060000004a2006140600094
:1003f0000080fb00610060000000400011178000d9
:100400000110a100010070001017880084c0a9002d
:100410000080fa000080fe000040060000a0fe0000
:100420003600f800849fbe00869fbe000200fa00de
:100430000000eb00000f780010c0b3009d0407001f
:10044000000f7800101480008000eb00ce00070041
:10045000c21c230073ec230020010700ac0007003e
:1004600000007800b00e8800b00e8000c00e88003a
:1004700088e0a9000080fa004f03be004f02be00d2
:100480003600f9000080fe00004006000000fa007f
:100490000080fa00004006000000fa008020a90059
:1004a000ffff37000000fa008060a900ffff37005f
:1004b0000000fa008040a900ffff37000000fa00aa
:1004c0008080a900ffff37000000fa008020a9000b
:1004d000ffff37000000fa008060a900ffff37002f
:1004e0000000fa008040a900ffff37000000fa007a
:1004f0008080a900ffff37000000fa00ffff3700ef
:100500000000050003f0a200889fbe008a9fbe0085
:100510008c1f7800d9000700e00033006450e10030
:100520004f0032006420e1005200320003826c0070
:1005300007003b000905d0000306d000820f5400dd
:100540000c065d00020039000200320089017800cb
:10055000030678008582550004003d000003fd007d
:100560008103fd008502ea008b854200840f720042
:1005700002003b0060001000e08018006011b8002d
:100580000005eb007a28e1000a0039000600780037
:10059000c75ddd00f707b200878075002d003700ca
:1005a000828171000a017800610560008180d100bc
:1005b0000080d3008502e900f9ff3b0006044000fb
:1005c0008784480002003b0060041400e0841c00a3
:1005d0000988a300070032008a81710082817100be
:1005e000610164008904d1000884d3008b05e80010
:1005f000170037000978a30013003a000b00e00051
:10060000130034008b05e9000804440089844c0081
:100610000a4474000978a3000d003a000b00e000c2
:10062000070034008b05e9000804440089844c006d
:1006300001003a000b0020000978a300f7ff320008
:100640000001eb0002003700828171000a0178008e
:100650004f0007000cf0a70001f0a0009800370041
:100660006420e10002003a00838f6c0098003300a0
:100670000801be000200be009100370014002000f7
:10068000ca003700f4ff2f00c80037000001be0089
:10069000650007000470a70003f0a1006509b10020
:1006a000160032000d0035006828e1000600350014
:1006b000f0ff2f00f1ff27000300e00013003b00d4
:1006c0000100280000000500000040008180480073
:1006d0008502e900fcff3a0008003700f88f42006d
:1006e00002003c008000eb00000005008100d1000a
:1006f0000080d3008502e800fcff3a000300e00020
:1007000002003b0060001000e080180000000600be
:100710000001be00440007000470a70003f0a10020
:1007200003f8a30013003a006509b100100032007d
:10073000090035006928e1000200350001002800a9
:100740000000050000004000818048008502e900ab
:10075000fcff3a0000000600f88f4200050035005b
:100760008100d1000080d3008502e800fcff3a0040
:10077000000006008000eb00000005004f89de004d
:1007800082017800a40037006011b800b200370081
:1007900081002000618055000b003d000b0020000f
:1007a00061fe2f000100e1001d0034008281710014
:1007b000610164008904d1000884d3000000e800ce
:1007c000faff3a007100200061006400030070002d
:1007d000020060000900320061044400e0844c0023
:1007e0000988a500050032008b05e8006808e100d3
:1007f00002003a008904d1000884d300f20f2000df
:100800000258e10005003d00c75ddd00f907b200b8
:100810008980750008007800000006000bf82700aa
:100820008b00780000000500c70ade00f107b20067
:10083000f50fb20008003200e1cf420002003200a2
:100840000170a00024000500810f7000010032003b
:100850000408050044000500810f700002003a0002
:10086000140005008502e9000000400081c0480036
:10087000fcff3b000170a000240005000004be0046
:10088000e9ff07000003be000405be000200be0031
:10089000e5ff0700844f7500000006000200be005f
:1008a0006450e100050036006420e10002003600db
:1008b0000968a30001003a000800be000160a00022
:1008c0004f0678004f05be004f04be000000060032
:1008d000f0ff2f00f1ff2700f9ff3700889fbe00cf
:1008e0008a9fbe008c1f7800e4ff0700ebff3300f7
:1008f00003866c006450e100240032006420e100b3
:10090000270032006150e100220032006120e10046
:10091000210032008b854200eb07b1000134b800a2
:10092000003ab8000804420089844a00013ab8003d
:100930000030b8008880400009014a0004003300fc
:100940000000400081804800020149008b05e90059
:10095000c909dd008301700001003200130020008e
:10096000c814de004814dd004709de001200b200a2
:10097000c808de000884700085ff070001f0a100b0
:100980000cf0a70001f0a000cdff37006120e100ce
:10099000cfff32000801be000200be00f7ff3700a3
:1009a0006150e100fcff3a00c9ff3700889fbe009c
:1009b0008a9fbe00841f7800b0ff07004f007800b8
:1009c00011003300f0ff2f00838f6c0006003b0006
:1009d000040565000a00a7000800370009f0a6001a
:1009e0001000200008003700820f5400838f5c0045
:1009f000030039001000200001003e00000020002c
:100a000009f0a7000000ea004f05be004f04be0039
:100a10000000e00000000600881f78000304780052
:100a20000300e00007003d0060001000e0801800b7
:100a300060011900e081190002003b0001f02d0067
:100a4000030037000400070008f0a70001f0a00031
:100a50004f04780000000600889fbe008a9fbe00f9
:100a600000827000040271000482710026003200ce
:100a70000004be000200be006011b8006b09200037
:100a8000950220000182cf000a0039000541b10023
:100a90000082cf00070039000541b1000982cf0074
:100aa000040039000541b1000882cf00010039007f
:100ab0000541b10005425200120032000a003b001d
:100ac00082817100610164008100d1000080d30047
:100ad0008984d3000884d3008b05e8000442e80031
:100ae000f7ff3a00070037000804440089844c00ef
:100af00000004800818048008b05e9000442e900bd
:100b0000f9ff3a0022ff07004f05be004f04be0068
:040b100000000600db
:020000040000fa
:100b14000a00fa000000eb00000f7800d0cc2c0093
:100b2400c118240003020700100798002107980049
:100b3400a0d2200025020700300798004107980042
:100b4400a6010700d8010700ac010700b80107009f
:100b540010c0b300d6020700000f78001e009000fa
:100b6400ae009000c8fe070000007800ff000700f8
:100b7400870107003e009000ce009000c2fe0700ef
:100b840000007800f9000700810107001e007800ca
:100b9400f60007007e01070000712200b70007007d
:100ba400ebff37000a00fa00889fbe00004f980050
:100bb4000000eb00000f78006000b80010079800f8
:100bc400210798008e48900090c6b30080cf500053
:100bd40051003a004040800051408000aafe0700c6
:100be40030079800044080001540800020408000b9
:100bf400314080000001be000400be0040fe07003a
:100c0400404088005140880048408000594080009e
:100c14003e009000cf80de00d7fe07000001be003a
:100c24000800be0036fe070097fe0700000f78009c
:100c3400c8408000d94080001e007800cf80de00cc
:100c4400cdfe07000001be000800be0022ff070021
:100c54000004be00e4408000f54080004040800075
:100c6400514080000001be000400be001aff0700ce
:100c74000001be000800be0022fe07001007980015
:100c840021079800a0408000b14080001e01900020
:100c9400ae0190001bfe0700a0408800b140880010
:100ca400a0408000b140800018c0b30002002c00b6
:100cb400f347240072fe07000000e00001003c003e
:100cc4000044eb000804e0000400320000002c00a3
:100cd400f1472400a0408800b1408800a040800073
:100ce400b140800018c0b30002002c00f3472c0070
:100cf40063fe07000000e00001003c000044eb003c
:100d04000804e0000400320000002c00f1472c002d
:100d1400a0408800b14088008e48900070c7b3009e
:100d240080cf500052003a00604180007141800041
:100d340055fe0700300798002441800035418000ab
:100d440040418000514180000001be000400be000b
:100d5400ebfd070060418800714188003e0090006f
:100d6400cf80de0084fe07000002be0060418000e8
:100d7400714180000001be000400be00e0fd0700d8
:100d840041fe0700000f7800e8418000f94180002f
:100d94001e007800cf80de0077fe07000001be0051
:100da4000800be00ccfe07000004be000442800020
:100db4001542800060418000714180000001be0046
:100dc4000400be00c4fe07000001be000800be000f
:100dd400ccfd07001007980021079800c04180004f
:100de400d14180001e019000ae019000c5fd0700b6
:100df400c0418800d1418800c0418000d1418000b9
:100e040018c0b30002002c00f34724001cfe0700a6
:100e14000000e00001003c000044eb000804e00096
:100e24000400320000002c00f1472400c041880077
:100e3400d1418800c0418000d141800018c0b30076
:100e440002002c00f3472c000dfe07000000e00018
:100e540001003c000044eb000804e0000400320000
:100e640000002c00f1472c00c0418800d1418800cb
:100e74004f04be000080fa00000006000400fa00df
:100e8400100798009e009000010f780001003700c1
:100e94001e0fe9001e0078000000e000fcff3a008d
:100ea4000080fa00000006000000fa004003200061
:100eb400a01088000de2a9000da2a8000d42a9000f
:100ec4000ca2a9006110800090ff2f000080600038
:100ed400601088000c02a9000fe2a9008540a90057
:100ee4008d40a900c1048000f08f2f0000806000b5
:100ef4000080a000c00488000de2a8000f42a800f2
:100f04000080fa00000006000200fa00000f7800da
:100f14006010800066006000e60f500003003a0095
:100f24009e0078008110880003003700f00f200035
:100f34001e006000801088000080fa000000060097
:100f44000000fa0071108000001020000080600092
:100f540000f0a7000000ea000000e9004f00de00f6
:100f6400004078000080fa00000006000c00fa003f
:100f74005007980004000900001feb00ae00b10008
:100f840000000000eeff07000004e000fdff3a004f
:100f94005e0090000000e00009003d00d002200047
:100fa400d9ff070000000000e5ff07000004e0008f
:100fb400fdff3a005e0090000000ea005007980030
:100fc400de009000a000200000017800110009005c
:100fd4008200d8008000fd00000f78005e019000c0
:100fe400706626000090b900c288de004f90de00d3
:100ff4000080500050079800de00900070662600c4
:101004000089b9004299de004f88de0000005100db
:101014006a01b900020078000080500010079800af
:101024005e019000706626000090b900c288de0060
:101034004f90de000080500050079800de009000c2
:10104400706626000089b9004299de004f88de00f0
:10105400000051006a01b9000200780000805000cd
:10106400200798005e019000706626000090b90089
:10107400c288de004f90de000080500050079800c8
:10108400de009000706626000089b9004299de00f7
:101094004f88de00000051006a01b90002007800a8
:1010a40000805000300798005e01900070662600b2
:1010b4000090b900c288de004f90de00008050002e
:1010c40050079800de009000706626000089b90081
:1010d4004299de004f88de00000051006a01b90029
:1010e40002007800008050004007980000000000d3
:1010f40093ff07000004e000fdff3a004e0090005b
:101104000003b00080ff0700000000008cff070010
:101114000004e000fdff3a003e0090000003b00030
:1011240079ff07000000000085ff07000004e000cd
:10113400fdff3a002e0090000003b00072ff07008c
:10114400000000007eff07000004e000fdff3a00fd
:101154001e0090000003b0006bff070000000000b9
:1011640077ff07000004e000fdff3a001e0078004e
:101174000003b00064ff07000000000070ff0700d8
:101184000004e000fdff3a000080fa0000000600c1
:101194000000fa000000000069ff07000004e000fe
:1011a400fdff3a00d000200057ff070000000000b8
:1011b40063ff07000004e000fdff3a00a0002000e8
:1011c40051ff0700000000005dff07000004e0007d
:1011d400fdff3a000080fa00000006000000fa005b
:1011e4008501070066010700ec0007003a010700cb
:1011f4002dff07000080fa00000006000a00fa0034
:101204000000eb00000f78000000eb0010079800ce
:101214000000eb0020079800700c200030079800b5
:10122400700c2000400798000080fa0000000600bf
:101234004800fa0023000900001feb008e04b100ef
:10124400b0dc290091b12300000f9800110f980021
:10125400c0ca230011982300200f9800310f980072
:10126400c05a2c00716a2300400f9800510f980057
:1012740010ae270041012400201f9800311f980060
:10128400d0cc2c00c1ec2300401f9800511f9800c3
:10129400a0702d0031ba2300601f9800711f9800c0
:1012a4000080fa00000006002000fa000f00090088
:1012b400001feb000e02b1000000200001f4230027
:1012c400008fbe00b045290091b523002007980087
:1012d400310798009098220011b923004007980024
:1012e400510798003033230031f32300600798003e
:1012f40071079800a0702d0031ca2300000f9800d8
:10130400110f980010162000200f9800a0d2200082
:10131400300f980080252000400f980040102000d6
:10132400500f980010c1b300405f98000080fa008d
:10133400000006000800fa00881f780020079800c3
:10134400310798006000b800008fbe0018c0b300d9
:10135400d2cc2c00c3182c002e009000be009000ac
:10136400c7fc07000000e00001003d000044eb0062
:101374000804e0001100320018c0b300d2cc2c00e5
:10138400c31824002e009000be009000bafc070091
:101394000000e000010034000044eb000804e00019
:1013a4000600320002002800832624002e0090004c
:1013b400be00900048fd0700008fbe001e00be0066
:1013c4004f0478000080fa00000006000600fa00ce
:1013d400881f7800200798006000b800008fbe00c6
:1013e4002e009000cf80de00e3fc070018c0b3009d
:1013f40002002a0023552c00a1fc07000000e00095
:1014040001003d000044eb000804e000130032003a
:101414002e009000cf80de00d7fc070018c0b30078
:1014240002002a002355240093fc07000000e0007a
:10143400010034000044eb000804e000070032001f
:101444002e009000cf80de00cbfc070032c52600c2
:10145400b3e9230020fd0700008fbe001e00be007c
:101464004f0478000080fa00000006000600fa002d
:10147400000f780011079800424798004e409000f2
:101484006140600061406000614060000080fb00da
:1014940061006000510e80000100a1000100700095
:1014a400500e88001e00e900000040008000780013
:1014b400601d2000008040009e009000010878001c
:1014c400ca01a9000080fa00000006000200fa0028
:1014d400000f7800c1e1a9009e007800210e880069
:1014e400c1a1a800010e8000f0f02f000080600070
:1014f400000e8800010e800030ff2f000080600085
:10150400000e8800010e8000c0ff2f0000806000e4
:101514000010a000000e8800c901a900c921a9007b
:10152400c881a800c801a800c8a1a800c821a800b3
:10153400510e8000f00f2f00008060000080a0009a
:10154400500e8800ca21a800ca01a900610e8000bb
:1015540000fc2f0000806000600e8800d521a800e8
:10156400d501a800d561a800d541a80088e0a9004c
:10157400c7e1a80031058000f0ff280080806000ea
:1015840000002500010070003005880090e0a800ec
:10159400c1e1a8000080fa00000006000000fa0083
:1015a400404280000041eb008000780010002000e1
:1015b400aeff0700404280000041eb00800078004d
:1015c40020002000a9ff0700700c2000bfff0700c7
:1015d4000080fa00000006000000fa00a1e2a90061
:1015e400a1a2a80001158000f0cf2f0000806000a8
:1015f4000015880001158000f0f12f008080600044
:10160400000620000100700000158800a062a800f8
:10161400a042a80011158000f0ff210000806000a6
:1016240010158800111580000030200001007000a2
:1016340010158800a222a80021158000f00f2e00aa
:10164400008060000080a00020158800a4e2a900aa
:101654002115800000fc2f00008060000010a00015
:101664002015880031158000f0f32f000080600001
:1016740030158800a6a2a900a682a9003115800011
:1016840000ff2f0000806000d000b30030158800f8
:10169400a802a900a822a900a842a900a862a9003a
:1016a4008d60a900a1e2a8000080fa0000000600f5
:1016b4000200fa00004f78001e80fb00000040008a
:1016c400800078000028200000804000100078008e
:1016d4000080fa00000006000000fa00beff0700c8
:1016e4000080fa00000006000000fa000421a900ae
:1016f40021088000000320000100700020088800f9
:1017040080c1230010088800a1048000f0ff280095
:101714000080600000d0a000a00488008460a900bc
:101724008c60a8000000000005e1a8000080fa0019
:10173400000006000000fa001021a90081088000c2
:1017440000032000010070008008880040c02000d1
:1017540060088800b1048000f08f2f0000806000d2
:101764000090a000b004880084c0a9008cc0a80028
:101774000000000011e1a8000080fa00000006004b
:101784000000fa00d8ff0700eaff07000080fa0013
:10179400000006000000fa00de02a900de22a90013
:1017a400de42a900de62a900de82a900dea2a90051
:1017b4000080fa00000006000000fa00d802a90028
:1017c400d822a900d842a900d862a900d882a900c9
:1017d400d8a2a9000080fa00000006000000fa0068
:1017e400c602a800c622a800c642a800c662a80075
:1017f4000080fa00000006000000fa00e5ff070080
:10180400edff0700f5ff07000080fa000000060066
:020000040000fa
:101814000008000048000000000000004808000024
:101824000200000002000000c700000000000000e9
:020000040000fa
:0200000401f009
:04000000f5bf000048
:020000040000fa
:0200000401f009
:04000400ff7f00007a
:020000040000fa
:0200000401f009
:04000800fffb0000fa
:020000040000fa
:0200000401f009
:04001400ffff0000ea
:020000040000fa
:0200000401f009
:04001800ffff0000e6
:00000001FF
