:020000040000fa
:080000000001040000000000f3
:020000040000fa
:040008007c02000076
:020000040000fa
:04000c004c020000a2
:020000040000fa
:040010005202000098
:020000040000fa
:04001400580200008e
:020000040000fa
:040018005e02000084
:020000040000fa
:04001c007c02000062
:020000040000fa
:040020007c0200005e
:020000040000fa
:040024007c0200005a
:020000040000fa
:040028007c02000056
:020000040000fa
:04002c007c02000052
:020000040000fa
:040030007c0200004e
:020000040000fa
:04003400c8010000ff
:020000040000fa
:040038007c02000046
:020000040000fa
:04003c007c02000042
:020000040000fa
:04004000ea010000d1
:020000040000fa
:040044007c0200003a
:020000040000fa
:040048007c02000036
:020000040000fa
:04004c007c02000032
:020000040000fa
:040050004602000064
:020000040000fa
:040054007c0200002a
:020000040000fa
:040058007c02000026
:020000040000fa
:04005c007c02000022
:020000040000fa
:040060007c0200001e
:020000040000fa
:040064007c0200001a
:020000040000fa
:040068007c02000016
:020000040000fa
:04006c007c02000012
:020000040000fa
:040070007c0200000e
:020000040000fa
:040074007c0200000a
:020000040000fa
:040078007c02000006
:020000040000fa
:04007c007c02000002
:020000040000fa
:040080007c020000fe
:020000040000fa
:040084007c020000fa
:020000040000fa
:040088007c020000f6
:020000040000fa
:04008c007c020000f2
:020000040000fa
:040090007c020000ee
:020000040000fa
:040094007c020000ea
:020000040000fa
:040098007c020000e6
:020000040000fa
:04009c007c020000e2
:020000040000fa
:0400a0007c020000de
:020000040000fa
:0400a4007c020000da
:020000040000fa
:0400a8007c020000d6
:020000040000fa
:0400ac007c020000d2
:020000040000fa
:0400b0007c020000ce
:020000040000fa
:0400b4007c020000ca
:020000040000fa
:0400b8007c020000c6
:020000040000fa
:0400bc007c020000c2
:020000040000fa
:0400c0007c020000be
:020000040000fa
:0400c4000e02000028
:020000040000fa
:0400c8007c020000b6
:020000040000fa
:0400cc007c020000b2
:020000040000fa
:0400d0007c020000ae
:020000040000fa
:0400d4007c020000aa
:020000040000fa
:0400d8007c020000a6
:020000040000fa
:040108007c02000075
:020000040000fa
:04010c006402000089
:020000040000fa
:040110006a0200007f
:020000040000fa
:040114007002000075
:020000040000fa
:04011800760200006b
:020000040000fa
:04011c007c02000061
:020000040000fa
:040120007c0200005d
:020000040000fa
:040124007c02000059
:020000040000fa
:040128007c02000055
:020000040000fa
:04012c007c02000051
:020000040000fa
:040130007c0200004d
:020000040000fa
:04013400c8010000fe
:020000040000fa
:040138007c02000045
:020000040000fa
:04013c007c02000041
:020000040000fa
:04014000ea010000d0
:020000040000fa
:040144007c02000039
:020000040000fa
:040148007c02000035
:020000040000fa
:04014c007c02000031
:020000040000fa
:040150004602000063
:020000040000fa
:040154007c02000029
:020000040000fa
:040158007c02000025
:020000040000fa
:04015c007c02000021
:020000040000fa
:040160007c0200001d
:020000040000fa
:040164007c02000019
:020000040000fa
:040168007c02000015
:020000040000fa
:04016c007c02000011
:020000040000fa
:040170007c0200000d
:020000040000fa
:040174007c02000009
:020000040000fa
:040178007c02000005
:020000040000fa
:04017c007c02000001
:020000040000fa
:040180007c020000fd
:020000040000fa
:040184007c020000f9
:020000040000fa
:040188007c020000f5
:020000040000fa
:04018c007c020000f1
:020000040000fa
:040190007c020000ed
:020000040000fa
:040194007c020000e9
:020000040000fa
:040198007c020000e5
:020000040000fa
:04019c007c020000e1
:020000040000fa
:0401a0007c020000dd
:020000040000fa
:0401a4007c020000d9
:020000040000fa
:0401a8007c020000d5
:020000040000fa
:0401ac007c020000d1
:020000040000fa
:0401b0007c020000cd
:020000040000fa
:0401b4007c020000c9
:020000040000fa
:0401b8007c020000c5
:020000040000fa
:0401bc007c020000c1
:020000040000fa
:0401c0007c020000bd
:020000040000fa
:0401c4000e02000027
:020000040000fa
:0401c8007c020000b5
:020000040000fa
:0401cc007c020000b1
:020000040000fa
:0401d0007c020000ad
:020000040000fa
:0401d4007c020000a9
:020000040000fa
:0401d8007c020000a5
:020000040000fa
:100200008f8420000eff20000e01880000000000f7
:10021000000020000000e000020032000001200089
:100220002002880014000700b50007000000e0006d
:1002300003003a0040922000010020000200370035
:100240000000200001002000810f7000010032003a
:1002500014000700000020000000e000020032004f
:100260000000020000000000e008020000000000a2
:100270000040da000000fe004440a9000000200019
:100280000000e0000300320000002000a001880010
:100290004440a800000006008a1f78008b1f7800e9
:1002a0000000060091018800800478000000eb0047
:1002b0001a003700e284440032a0b4009905ba0065
:1002c000e284440032a0b4009906ba00e2844400fb
:1002d00032a0b4000006eb00476fde00fd07b2005d
:1002e000636ce10003003a00ebff07000000eb0045
:1002f0000a003700606ce10004003a00005deb008a
:100300008b05e900fdff3e00040037006168e10055
:10031000010032000086eb000b00070019c7ba008d
:100320001905ba000e04e00003003a000a00e000dc
:10033000e0ff3a0000000600fe07b2009e018800c0
:100340008a047800f5ff3700395dba008b05e900b3
:100350000c003200295dba008b05e900080032006c
:100360000c00e00003003a00e284440032a0b40034
:10037000f5ff370019ddba008b05e900faff3a00f6
:100380008904e800e184440032a0b40000000600c3
:1003900000a0fe000000fa00101780000040780066
:1003a000614060000004a200614060000080fb002a
:1003b00061006000111780000100a10001007000c1
:1003c000101788008460a9000080fa000080fe00f9
:1003d0000040060000a0fe000000fa001017800098
:1003e0000000d100614060000004a2006140600094
:1003f0000080fb00610060000000400011178000d9
:100400000110a100010070001017880084c0a9002d
:100410000080fa000080fe000040060000a0fe0000
:100420003600f800849fbe00869fbe000200fa00de
:100430000000eb00000f780010c0b3002703070096
:10044000000f7800101480008000eb0048000700c7
:10045000c21c230073ec23005c0007002900070086
:1004600000007800b00e8800b00e8000c00e88003a
:1004700088e0a9000080fa004f03be004f02be00d2
:100480003600f9000080fe00004006000000fa007f
:100490000080fa00004006000000fa008020a90059
:1004a000ffff37000000fa008060a900ffff37005f
:1004b0000000fa008040a900ffff37000000fa00aa
:1004c0008080a900ffff37000000fa008020a9000b
:1004d000ffff37000000fa008060a900ffff37002f
:1004e0000000fa008040a900ffff37000000fa007a
:1004f0008080a900ffff37000000fa00ffff3700ef
:10050000000005000001be001b0007000470a700ea
:1005100003f0a10003f8a30013003a006509b1003d
:1005200010003200090035006928e10002003500a2
:100530000100280000000500000040008180480004
:100540008502e900fcff3a0000000600f88f420037
:10055000050035008100d1000080d3008502e8004d
:10056000fcff3a00000006008000eb0000000500e0
:100570006011b80049003700c70ade00f107b20079
:10058000f50fb20008003200e1cf42000200320055
:100590000170a00024000500810f700001003200ee
:1005a0000408050044000500810f700002003a00b5
:1005b000140005008502e9000000400081c04800e9
:1005c000fcff3b000170a00024000500889fbe00d6
:1005d0008a9fbe008c1f7800850007008c003300c6
:1005e00003866c006450e100240032006420e100c6
:1005f000270032006150e100220032006120e1005a
:10060000210032008b854200eb07b1000134b800b5
:10061000003ab8000804420089844a00013ab80050
:100620000030b8008880400009014a00040033000f
:100630000000400081804800020149008b05e9006c
:10064000c909dd00830170000100320013002000a1
:10065000c814de004814dd004709de001200b200b5
:10066000c808de00088470003b00070001f0a1000c
:100670000cf0a70001f0a0006e0037006120e1003f
:10068000700032000801be000200be00f7ff370014
:100690006150e100fcff3a006a003700889fbe000d
:1006a0008a9fbe0000827000040271000482710003
:1006b000260032000004be000200be006011b80037
:1006c0006b092000950220000182cf000a0039004a
:1006d0000541b1000082cf00070039000541b1009b
:1006e0000982cf00040039000541b1000882cf0023
:1006f000010039000541b1000542520012003200ec
:100700000a003b0082817100610164008100d10018
:100710000080d3008984d3000884d3008b05e800cf
:100720000442e800f7ff3a000700370008044400dd
:1007300089844c0000004800818048008b05e90056
:100740000442e900f9ff3a00030007004f05be002c
:100750004f04be00000006008100200061805500ab
:100760000b003d000b00200061fe2f000100e100a6
:100770001d00340082817100610164008904d10090
:100780000884d3000000e800faff3a00710020005e
:100790006100640003007000020060000900320084
:1007a00061044400e0844c000988a5000500320083
:1007b0008b05e8006808e10002003a008904d100d6
:1007c0000884d300f20f20000258e10005003d002c
:1007d000c75ddd00f907b200898075000800780068
:1007e000000006000bf827008b00780000000500d1
:1007f0000004be0060ff07000003be000405be0049
:100800000200be005cff0700844f75000000060078
:100810000200be006450e100050036006420e100e3
:10082000020036000968a30001003a000800be007b
:100830000160a0004f0678004f05be004f04be00c7
:1008400000000600f0ff2f00f1ff2700f9ff37003e
:020000040000fa
:100850000000fa0040032000a01088000de2a9006b
:100860000da2a8000d42a9000ca2a90061108000f1
:1008700090ff2f0000806000601088000c02a9002b
:100880000fe2a9008540a9008d40a900c1048000a5
:10089000f08f2f00008060000080a000c00488005e
:1008a0000de2a8000f42a8000080fa000000060038
:1008b0000200fa00000f78006010800066006000ff
:1008c000e60f500003003a001e00780080108800f8
:1008d000040037009e007800f00f200000806000c8
:1008e000801088000080fa00000006000000fa0076
:1008f00071108000001020000080600000f0a70050
:100900000000ea000000e9004f00de00004078002f
:100910000080fa00000006000c00fa005007980062
:1009200004000900001feb00ae00b1000000000051
:10093000eeff07000004e000fdff3a005e009000bb
:100940000000e00009003d00d0022000d8ff0700b1
:1009500000000000e5ff07000004e000fdff3a0092
:100960005e0090000000ea0050079800de00900052
:10097000a000200000017800110009008200d800ca
:100980008000fd00000f78005e0190007066260078
:100990000090b900c288de004f90de000080500059
:1009a00050079800de009000706626000089b900ac
:1009b0004299de004f88de00000051006a01b90054
:1009c0000200780000805000100798005e0190003f
:1009d000706626000090b900c288de004f90de00ed
:1009e0000080500050079800de00900070662600de
:1009f0000089b9004299de004f88de0000005100f6
:100a00006a01b900020078000080500020079800b9
:100a10005e019000706626000090b900c288de007a
:100a20004f90de000080500050079800de009000dc
:100a3000706626000089b9004299de004f88de000a
:100a4000000051006a01b9000200780000805000e7
:100a5000300798005e019000706626000090b90093
:100a6000c288de004f90de000080500050079800e2
:100a7000de009000706626000089b9004299de0011
:100a80004f88de00000051006a01b90002007800c2
:100a900000805000400798000000000093ff07000e
:100aa0000004e000fdff3a004e0090000003b0009b
:100ab0007fff0700000000008cff07000004e0003b
:100ac000fdff3a003e0090000003b00078ff0700f1
:100ad0000000000085ff07000004e000fdff3a0071
:100ae0002e0090000003b00071ff0700000000001e
:100af0007eff07000004e000fdff3a001e009000aa
:100b00000003b0006aff07000000000077ff070045
:100b10000004e000fdff3a001e0078000003b00072
:100b200063ff07000000000070ff07000004e00002
:100b3000fdff3a000080fa00000006000000fa0005
:100b40000000000069ff07000004e000fdff3a001c
:100b5000d000200056ff07000000000063ff0700e0
:100b60000004e000fdff3a00a000200050ff070055
:100b7000000000005dff07000004e000fdff3a00f8
:100b80000080fa00000006000000fa00e8010700fb
:100b9000860107000c0107005a0107002cff07001f
:100ba0000080fa00000006000200fa00000f780042
:100bb0001e007800f20f4000090035001e0078008a
:100bc000f20f500006003c009e007800c07120002b
:100bd0000088b90000007800004088000800370055
:100be0001e007800f10f50000300340000002800c0
:100bf0000040880002003700000028000040880004
:100c00000080fa00000006000200fa00000f7800e1
:100c1000602d2f009e007800808f50000800350066
:100c2000a0d220009e007800808f500004003c007d
:100c30001e00780000004000804088000900370056
:100c400090d220009e007800808f50000300340076
:100c500000002200804088000200370000002e00c3
:100c6000804088000080fa00000006000e00fa00b4
:100c7000889fbe008a9fbe008c9fbe0030079800f0
:100c80000000eb00000f78000000eb001007980058
:100c90000000eb00200798003e0090000000e000fc
:100ca00038003a0021408000010f780001408000a8
:100cb00010408000008050002040880020408000cc
:100cc0001e00500010079800404080006101b900ec
:100cd0001e009000cf80de00009ab9000402780068
:100ce000028bb9005607980067079800de02900053
:100cf000050242000010b8000102420084007800a2
:100d00004109dd004f03de0006037100cf8bde00da
:100d10008600780041079800504080006101b900ca
:100d200020408000cf80de00009ab90004027800e5
:100d3000028bb90086027800050242000010b8005c
:100d400001024200840078004109dd004f06de0008
:100d50000c067100cf8ede000c0078004e03900070
:100d60000000430020079800314080002e009000d2
:100d7000008040003040880030408000e6fe0700e0
:100d80006eff07003e009000e10f50003d003a006a
:100d9000a7408000070f78008140800090408000cd
:100da00000805000a0408800a04080001e0010007d
:100db00010079800c04080006101b9001e0090003b
:100dc000cf80de00009ab90004027800028bb900df
:100dd00086027800050242000010b80001024200bd
:100de000840078004309dd004d05de000a0571002e
:100df000cd8dde000a057800d04080006101b90089
:100e0000a0408000cf80de00009ab9000402780084
:100e1000028bb90086027800050242000010b8007b
:100e20000102420084007800430bdd004d04de0027
:100e300008047300cd8cde00080078000000450037
:100e400020079800b14080002e00900000804000f4
:100e5000b0408800b140800000002200808f500028
:100e60000200340000002200b0408800b140800041
:100e700000002e00808f500002003d0000002e0078
:100e8000b04088004f06be004f05be004f04be00b4
:100e90000080fa00000006000600fa00000f78004b
:100ea00011079800424798004e4090006140600052
:100eb00061406000614060000080fb0061006000f4
:100ec000510e80000100a10001007000500e88004a
:100ed0001e00e9000000400080007800601d200036
:100ee000008040009e00900001087800ca01a9001f
:100ef0000080fa00000006000200fa00000f7800ef
:100f0000c1e1a9009e007800210e8800c1a1a800bf
:100f1000010e8000f0f02f0000806000000e8800bd
:100f2000010e800030ff2f0000806000000e88005e
:100f3000010e8000c0ff2f00008060000010a000a4
:100f4000000e8800c901a900c921a900c881a80014
:100f5000c801a800c8a1a800c821a800510e80009f
:100f6000f00f2f00008060000080a000500e88006d
:100f7000ca21a800ca01a900610e800000fc2f0050
:100f800000806000600e8800d521a800d501a8006f
:100f9000d561a800d541a80088e0a900c7e1a80054
:100fa00031058000f0ff28008080600000002500ef
:100fb000010070003005880090e0a800c1e1a800a1
:100fc0000080fa00000006000000fa0030428000b5
:100fd0000041eb008000780010002000aeff070009
:100fe000304280000041eb008000780020002000ab
:100ff000a9ff0700700c2000bfff07000080fa0067
:10100000000006000000fa00a1e2a900a1a2a800c9
:1010100001158000f0cf2f000080600000158800cf
:1010200001158000f0f12f00808060000006200094
:101030000100700000158800a062a800a042a8006e
:1010400011158000f0ff210000806000101588005d
:10105000111580000030200001007000101588007c
:10106000a222a80021158000f00f2e000080600051
:101070000080a00020158800a4e2a90021158000ae
:1010800000fc2f00008060000010a00020158800e8
:1010900031158000f0f32f000080600030158800cb
:1010a000a6a2a900a682a9003115800000ff2f008a
:1010b00000806000d000b30030158800a802a900ad
:1010c000a822a900a842a900a862a9008d60a900d1
:1010d000a1e2a8000080fa00000006000200fa0069
:1010e000004f78001e80fb00000040008000780068
:1010f0000028200000804000100078000080fa00e6
:10110000000006000000fa00beff07000080fa00a1
:10111000000006000000fa000421a9002108800058
:1011200000032000010070002008880080c1230017
:1011300010088800a1048000f0ff280000806000f3
:1011400000d0a000a00488008460a9008c60a800e2
:101150000000000005e1a8000080fa000000060081
:101160000000fa001021a90081088000000320007f
:10117000010070008008880040c0200060088800de
:10118000b1048000f08f2f00008060000090a0006c
:10119000b004880084c0a9008cc0a8000000000032
:1011a00011e1a8000080fa00000006000000fa002b
:1011b000d8ff0700eaff07000080fa0000000600e1
:1011c0000000fa009000200077fe0700409c2000fd
:1011d0008dfe07006cfe070010c0b300bfff0700c4
:1011e0004500dd0000428800004280001040880079
:1011f00000408000c8fd070050fe0700104080003e
:10120000c5fd07004dfe07000000eb0097fe07003c
:1012100000e2240001000700efff37000400fa009d
:10122000100798009e009000010f78000100370021
:101230001e0fe9001e0078000000e000fcff3a00ed
:081240000080fa000000060026
:020000040000fa
:101248004008000006000000000000000008000040
:101258004000000002000000000000000000000044
:101268000000430000080000ff7f0100800000002c
:1012780000000000000000003d2acd000cff7f00a8
:101288000180000000403f005b9459003b89290021
:10129800913b330033333f000ad7a3003c61010080
:1012a8002a0d58000204010011000000000000008f
:1012b800460800000200000002000000c70000000d
:0412c8000000000022
:020000040000fa
:1012cc000000fa00de02a900de22a900de42a9001d
:1012dc00de62a900de82a900dea2a9000080fa006d
:1012ec00000006000000fa00d802a900d822a900cc
:1012fc00d842a900d862a900d882a900d8a2a90016
:10130c000080fa00000006000000fa00c602a800e7
:10131c00c622a800c642a800c662a8000080fa0037
:10132c00000006000000fa00e5ff0700edff0700d3
:0c133c00f5ff07000080fa00000006002a
:020000040000fa
:0200000401f009
:04000000f5bf000048
:020000040000fa
:0200000401f009
:04000400ff7f00007a
:020000040000fa
:0200000401f009
:04000800fffb0000fa
:020000040000fa
:0200000401f009
:04001400ffff0000ea
:020000040000fa
:0200000401f009
:04001800ffff0000e6
:00000001FF
